:1000000045C0000060C000005EC000005CC0000091
:100010005AC0000058C0000056C0000054C0000084
:1000200052C0000050C000004EC000004CC0000094
:100030004AC0000048C0000046C0000044C00000A4
:1000400042C0000028C100004EC100003CC00000BA
:100050003AC0000038C0000036C0000034C00000C4
:1000600032C0000030C000002EC000002CC00000D4
:100070002AC0000028C0000026C0000024C00000E4
:1000800022C0000020C000001EC0000011241FBEBE
:10009000CFEFD0E1DEBFCDBF11E0A0E0B1E0E8EEF0
:1000A000F8E000E00BBF02C007900D92A633B10745
:1000B000D9F721E0A6E3B1E001C01D92AC34B2074C
:1000C000E1F78AD20FC49CCF1F93CF93DF93D82F31
:1000D000192FC62F28D080EA36D0812F34D08D2F0B
:1000E00032D08C2F30D027D0DF91CF911F9108953F
:1000F000CF93DF93C82FD92F16D080EA24D08D2F2D
:1001000022D08C2F20D00FD081EA1DD026D0C82F2E
:1001100012D08C2FDF91CF9108951092710088E456
:1001200080937000089584EA809374008091740035
:100130008823E4F7089584E9809374008091740023
:1001400084FDFCCF08958093730084E8809374004D
:10015000809174008823E4F7089584E88093740004
:10016000809174008823E4F780917300089582B32E
:10017000806482BBE2E6F0E080818860808381E079
:1001800080933A01089582B38F7B82BBE2E6F0E070
:100190008081877F808310923A01089582B38062C4
:1001A00082BBE2E6F0E080818061808381E0809321
:1001B0003B01089582B38F7D82BBE2E6F0E080814F
:1001C0008F7E808310923B01089582B3806882BB4A
:1001D000E2E6F0E080818062808381E080933C01F0
:1001E000089582B38F7782BBE2E6F0E080818F7D55
:1001F000808310923C01089582B3806182BBE2E665
:10020000F0E080818064808381E080933D010895E7
:1002100082B38F7E82BBE2E6F0E080818F7B8083B9
:1002200010923D010895A3DFB9DFCFDFE5CF089538
:10023000AADFC0DFD6DFECCF0895E0914101F0E006
:10024000EE5BFE4F80838091410190E001966AE071
:1002500070E018D3809341010895DC0140E050E044
:1002600080E015C0FD01E40FF51F9081892720E093
:100270000AC0882334F490E0880F991F97E08927FB
:1002800001C0880F2F5F2830A0F34F5F5F4F4617E4
:10029000570740F308951F920F920FB60F92112443
:1002A0000BB60F922F933F934F935F936F937F9370
:1002B0008F939F93AF93BF93EF93FF9381E0BDDF45
:1002C000FF91EF91BF91AF919F918F917F916F912E
:1002D0005F914F913F912F910F900BBE0F900FBEEA
:1002E0000F901F9018951F920F920FB60F92112426
:1002F0000BB60F922F933F934F935F936F937F9320
:100300008F939F93AF93BF93EF93FF9382E095DF1B
:10031000FF91EF91BF91AF919F918F917F916F91DD
:100320005F914F913F912F910F900BBE0F900FBE99
:100330000F901F9018959FB180913901823048F439
:10034000E82FF0E0E95CFE4F90838F5F80933901E6
:1003500007C0823029F4909336018F5F8093390172
:1003600080913901833081F462E070E087E391E0AD
:1003700074DF90913601891305C01092390187E32B
:1003800091E059D1109239018EB180688EB90895EB
:100390008CB120C20895FFCFC0DE43D187E690E044
:1003A00005D2789481B3806F81BBE1E6F0E0808173
:1003B0008F67808308950F931F93CF93DF93CDB7FB
:1003C000DEB728970FB6F894DEBF0FBECDBF809181
:1003D0003E0190913F019A8389838091040190911D
:1003E00005019C838B8380910201909103019E8380
:1003F0008D83809100019091010198878F8300E0A7
:1004000010E012C0D801A65CBE4FF801EE0FFF1F2E
:1004100081E090E08C0F9D1FE80FF91F6C918081A7
:10042000918152DE0F5F1F4F043011055CF3289657
:100430000FB6F894DEBF0FBECDBFDF91CF911F91F5
:100440000F910895EF92FF921F93CF93DF93CDB753
:10045000DEB728970FB6F894DEBF0FBECDBF8091F0
:100460003E0190913F019A8389838091040190918C
:1004700005019C838B8380910201909103019E83EF
:100480008D83809100019091010198878F8310E006
:1004900014C0812F90E09C01265C3E4F7901880FAB
:1004A000991FE1E0F0E0EC0FFD1FE80FF91F8081DC
:1004B00091811EDEF70180831F5F143050F3289670
:1004C0000FB6F894DEBF0FBECDBFDF91CF911F9165
:1004D000FF90EF900895EF92FF920F931F93CF93A9
:1004E000DF93CDB7DEB7A0970FB6F894DEBF0FBE8F
:1004F000CDBF88E1E6E0F1E0DE01119601900D92BA
:100500008A95E1F788E0EEE1F1E0DE01599601908D
:100510000D928A95E1F720E046C0822F90E0FC0121
:10052000EE0FFF1F41E050E04C0F5D1FE40FF51F81
:10053000008CF18DE02D30813323A1F17C01EE0C94
:10054000FF1CD701A80FB91FAA0FBB1FA40FB51F0F
:100550000D911C911197F801308141E050E0BA01F2
:1005600012960C90129702C0660F771F0A94E2F75A
:100570006327608313960D90BC91A02D3C91F701E9
:10058000E80FF91FEE0FFF1F81E090E08C0F9D1F19
:10059000E80FF91F058002C0440F551F0A94E2F7C7
:1005A00043274C932F5F243008F4B7CFA0960FB6A3
:1005B000F894DEBF0FBECDBFDF91CF911F910F9199
:1005C000FF90EF9008959FE088E10FB6F894A8950A
:1005D00081BD0FBE91BD0895DFDE34DF7CDFF3DF28
:1005E000A89590914101809140019817C9F3E0913D
:1005F0004001F0E0EE5BFE4F20818091400190E0F1
:1006000001966AE070E03ED180934001223031F0E3
:10061000233031F0213021F78EDEE2CFB9DEE0CF9A
:10062000BADE87B3806187BB8DB180648DB98DB12F
:1006300080688DB90895CF93DF93EC0166E271E095
:1006400048D1892B31F592B380E4892782BBE2E659
:10065000F0E0908188E08927808390913A0181E0E1
:10066000911180E090913A01891709F49CC0EAE366
:10067000F1E080838081813011F481E401C082E463
:10068000A1D060913A0180913E0190913F011CDD23
:100690008AC069E271E0CE011CD1892B19F482E590
:1006A00091D081C06CE271E0CE0113D1892B31F57C
:1006B00092B380E2892782BBE2E6F0E0908180E19C
:1006C0008927808390913B0181E0911180E0909196
:1006D0003B01891709F467C0EAE3F1E08183818176
:1006E000813011F483E401C084E46CD060913B015B
:1006F0008091040190910501E7DC55C06FE271E043
:10070000CE01E7D0892B29F582B3805882BBE2E67F
:10071000F0E0908180E28927808390913C0181E024
:10072000911180E090913C01891709F43CC0EAE303
:10073000F1E082838281813011F485E401C086E496
:1007400041D060913C018091020190910301BCDC99
:100750002AC062E371E0CE01BCD0892B21F592B3AF
:1007600080E1892782BBE2E6F0E0908180E489277E
:10077000808390913D0181E0911180E090913D0155
:10078000891789F0EAE3F1E083838381813011F4F2
:1007900087E401C088E416D060913D01809100019A
:1007A0009091010191DCDF91CF9108959093900099
:1007B00089B988E18AB98AB180688AB98EE0809364
:1007C000950008955D9BFECF8CB908955F9BFECF89
:1007D0008CB10895CF93C82F8C3481F4F7DFC82FE4
:1007E000813311F4C4DC03C0803309F4CCDC6091A4
:1007F0003A0180913E0190913F0166DCCD3481F455
:10080000E5DFC82F813311F4C9DC03C0803309F45C
:10081000D1DC60913B01809104019091050154DC91
:10082000CE3481F4D3DFC82F813311F4CEDC03C082
:10083000803309F4D6DC60913C01809102019091F3
:10084000030142DCCF3481F4C1DFC82F813311F4BE
:10085000D3DC03C0803309F4DBDC60913D0180917F
:1008600000019091010130DCCA3551F4AFDF8133D2
:1008700019F4D9DCA0DD04C0803311F4D9DC9BDD90
:10088000CF91089597FB072E16F4009406D077FDBC
:1008900008D00BD007FC05D03EF4909581959F4F72
:1008A0000895709561957F4F0895AA1BBB1B51E178
:1008B00007C0AA1FBB1FA617B70710F0A61BB70BD0
:1008C000881F991F5A95A9F780959095BC01CD0175
:1008D0000895FB01DC018D91019080190110D9F37D
:0808E000990B0895F894FFCF75
:1008E80003000200010032000662000332000562C4
:1008F80000043200076200053200046200063A0173
:100908003B013C013D014C31004831004C32004C68
:0609180033004C34000026
:00000001FF
