S01E0000332B315F636F6E74726F6C5F206F7074696D697A65642E73726563C3
S113000045C0000060C000005EC000005CC000008D
S11300105AC0000058C0000056C0000054C0000080
S113002052C0000050C000004EC000004CC0000090
S1130030E2C1000048C0000046C0000044C0000007
S113004042C000000AC200005AC200003CC00000C6
S11300503AC0000038C0000036C0000034C00000C0
S113006032C0000030C000002EC000002CC00000D0
S11300702AC0000028C0000026C0000024C00000E0
S113008022C0000020C000001EC0000011241FBEBA
S1130090CFEFD0E1DEBFCDBF11E0A0E0B1E0E0EDF5
S11300A0FCE000E00BBF02C007900D92A833B1073B
S11300B0D9F721E0A8E3B1E001C01D92A434B2074E
S11300C0E1F727D303C69CCFCF93DF9385B38B7F10
S11300D085BB82B38F7E82BB82B38F7D82BB82B3AA
S11300E08F7B82BB82B38F7782BB85B38E7F85BBC8
S11300F0C2E6D0E088818E7F888388EC90E08AD144
S113010088818D7F888388EC90E084D188818B7F7F
S1130110888388EC90E07ED18881877F888388EC0F
S113012090E078D1DF91CF910895CF93DF9385B399
S1130130846085BB82B3806182BB82B38F7D82BBC6
S113014082B38F7B82BB82B38F7782BB85B38E7F72
S113015085BBC2E6D0E088818E7F888388EC90E0FE
S113016059D188818260888388EC90E053D188815A
S11301708B7F888388EC90E04DD18881877F88834A
S113018088EC90E047D1DF91CF910895CF93DF932E
S113019085B3846085BB82B3806182BB82B3806295
S11301A082BB82B38F7B82BB82B38F7782BB85B3E2
S11301B08E7F85BBC2E6D0E088818160888388EC2D
S11301C090E028D188818260888388EC90E022D1F5
S11301D088818B7F888388EC90E01CD18881877F1D
S11301E0888388EC90E016D1DF91CF910895CF9366
S11301F0DF9385B3846085BB82B3806182BB82B3A5
S1130200806282BB82B3806482BB82B38F7782BBFD
S113021085B38E7F85BBC2E6D0E088818160888308
S113022088EC90E0F7D088818D7F888388EC90E01B
S1130230F1D088818460888388EC90E0EBD0888159
S1130240877F888388EC90E0E5D0DF91CF91089593
S1130250CF93DF9385B3846085BB82B3806182BB17
S113026082B3806282BB82B3806482BB82B38068C3
S113027082BB85B38E7F85BBC2E6D0E088818E7F4A
S1130280888388EC90E0C6D088818260888388EC7B
S113029090E0C0D088818460888388EC90E0BAD0F4
S11302A08881877F888388EC90E0B4D0DF91CF91F8
S11302B00895CF93DF9385B3846085BB82B3806157
S11302C082BB82B3806282BB82B3806482BB82B30E
S11302D0806882BB85B3816085BBC2E6D0E088813B
S11302E08E7F888388EC90E095D088818D7F888389
S11302F088EC90E08FD088818B7F888388EC90E0B5
S113030089D088818860888388EC90E083D0DF91ED
S1130310CF91089585B3826085BBE2E6F0E08081E9
S11303208061808381E080934001089585B38D7F4F
S113033085BBE2E6F0E080818F7E808310924001ED
S1130340089585B3886085BBE2E6F0E08081806231
S1130350808381E080934101089585B3877F85BBC5
S1130360E2E6F0E080818F7D808310924101089560
S113037085B3806185BBE2E6F0E0808180648083A0
S113038081E080934201089585B38F7E85BBE2E6C8
S1130390F0E080818F7B8083109242010895DC011C
S11303A040E050E080E015C0FD01E40FF51F9081AE
S11303B0892720E00AC0882334F490E0880F991F2D
S11303C097E0892701C0880F2F5F2830A0F34F5F83
S11303D05F4F4617570740F308958EB588608EBD6A
S11303E088E29EE09BBD8ABD87B7806187BF8EB5DA
S11303F085608EBD08951F920F920FB60F9211243F
S11304008F9381E080933F018F910F900FBE0F90E7
S11304101F901895AC0190913F01992399F0109287
S11304203F0120913C0130913D012F5F3F4F3093BC
S11304303D0120933C012417350720F010923D0123
S113044010923C01089587B3806187BB8DB18064AD
S11304508DB98DB180688DB908951F920F920FB632
S11304600F9211240BB60F922F933F934F935F93E8
S11304706F937F938F939F93AF93BF93EF93FF9368
S11304809FB180913B01823048F4E82FF0E0E75CB3
S1130490FE4F90838F5F80933B0107C0823029F425
S11304A0909338018F5F80933B0180913B018330AF
S11304B081F462E070E089E391E071DF90913801AA
S11304C0891305C010923B0189E391E0B2D11092E7
S11304D03B018EB180688EB9FF91EF91BF91AF91CE
S11304E09F918F917F916F915F914F913F912F9148
S11304F00F900BBE0F900FBE0F901F9018951F9278
S11305000F920FB60F9211240BB60F922F933F93B5
S11305104F935F936F937F938F939F93AF93BF9307
S1130520EF93FF938CB10AD3FF91EF91BF91AF91F9
S11305309F918F917F916F915F914F913F912F91F7
S11305400F900BBE0F900FBE0F901F9018957894CC
S11305507ADF43DF87E690E0E0D281B3806F81BB2E
S1130560E1E6F0E080818F67808384B38F6D84BB84
S11305700895EF92FF921F93CF93DF93CDB7DEB729
S113058028970FB6F894DEBF0FBECDBF88E0E0E039
S1130590F1E0DE01119601900D928A95E1F710E0E9
S11305A014C0812F90E09C01205C3E4F7901880F9C
S11305B0991FE1E0F0E0EC0FFD1FE80FF91F8081C7
S11305C091816FD3F70180831F5F143050F3289615
S11305D00FB6F894DEBF0FBECDBFDF91CF911F9150
S11305E0FF90EF900895EF92FF920F931F93CF9394
S11305F0DF93CDB7DEB768970FB6F894DEBF0FBEB2
S1130600CDBF82E1E8E0F1E0DE01119601900D92A8
S11306108A95E1F786E0EAE1F1E0DE015396019084
S11306200D928A95E1F720E046C0822F90E0FC010C
S1130630EE0FFF1F41E050E04C0F5D1FE40FF51F6C
S11306400288F389E02D30813323A1F17C01EE0C83
S1130650FF1CD701A80FB91FAA0FBB1FA40FB51FFA
S11306600D911C911197F801308141E050E0BA01DD
S113067012960C90129702C0660F771F0A94E2F745
S11306806327608313960D90BC91A02D3C91F701D4
S1130690E80FF91FEE0FFF1F81E090E08C0F9D1F04
S11306A0E80FF91F058002C0440F551F0A94E2F7B2
S11306B043274C932F5F233008F4B7CF68960FB6C7
S11306C0F894DEBF0FBECDBFDF91CF911F910F9184
S11306D0FF90EF90089580914301823081F028F4D7
S11306E0882349F0813049F012C0843061F048F029
S11306F0853059F00CC0E8CC089517CD089546CD47
S1130700089575CD0895A4CD0895D3CD0895DCCC76
S113071008951DDF2EDF67DFDEDFFFCFFBDD11DE97
S113072027DE809143018330E9F028F4813041F0E1
S1130730823079F032C08430F1F0853029F12DC057
S1130740F4DC81E4F3D181E08093430180933E01A2
S113075008951CDD83E4EAD182E080934301809311
S11307603E01089544DD84E4E1D183E080934301B4
S113077080933E0108956CDD85E4D8D184E08093B4
S1130780430180933E01089594DD86E4CFD185E052
S11307908093430180933E01089580913E0183300C
S11307A0E9F028F4813041F0823079F032C08430AD
S11307B0F1F0853029F12DC0B8DC81E4B7D181E0B6
S11307C08093430180933E010895E0DC83E4AED13D
S11307D082E08093430180933E01089508DD84E420
S11307E0A5D183E08093430180933E01089530DDD9
S11307F085E49CD184E08093430180933E01089575
S113080058DD86E493D185E08093430180933E01D3
S113081008958BDC81E48AD181E080934301809345
S11308203E01089583DD99DDAFDD4EDC1092430176
S11308300895CF93DF93EC0160E271E029D2892B14
S113084019F487E473D166C163E271E0CE0120D26A
S1130850892B19F595B382E0892785BBE2E6F0E0A0
S1130860908180E1892780839091400181E09111FA
S113087080E090914001891709F44CC1C0E4D1E0B3
S11308808883688180E090E014D28881813011F4FB
S113089080E501C081E54AD13DC166E271E0CE0147
S11308A0F7D1892B19F595B388E0892785BBE2E652
S11308B0F0E0908180E2892780839091410181E07A
S11308C0911180E090914101891709F423C1C0E49A
S11308D0D1E08983698181E090E0EBD18981813025
S11308E011F482E501C083E521D114C169E271E00C
S11308F0CE01CED1892B19F595B380E1892785BB2B
S1130900E2E6F0E0908180E48927808390914201BF
S113091081E0911180E090914201891709F4FAC0B5
S1130920C0E4D1E08A836A8182E090E0C2D18A8106
S1130930813011F484E501C085E5F8D0EBC06CE2A8
S113094071E0CE01A5D1892B09F070C080914301DB
S11309508330C9F028F4813041F0823069F028C036
S11309608430C1F08530E9F023C0DFDB81E4DED0E0
S113097081E08093430154C009DC83E4D7D082E052
S1130980809343014DC033DC84E4D0D083E0809372
S1130990430146C05DDC85E4C9D084E08093430113
S11309A03FC087DC86E4C2D085E08093430138C031
S11309B080913E018330C9F028F4813041F08230C7
S11309C069F028C08430C1F08530E9F023C0ADDB84
S11309D081E4ACD081E08093430122C0D7DB83E47F
S11309E0A5D082E0809343011BC001DC84E49ED047
S11309F083E08093430114C02BDC85E497D084E02A
S1130A00809343010DC055DC86E490D085E080934B
S1130A10430106C08ADB81E489D081E080934301ED
S1130A206091430183E090E044D174C06FE271E0CF
S1130A30CE012ED1892B41F482E478D045DB60E0ED
S1130A4083E090E036D166C062E371E0CE0120D14C
S1130A50892B91F5949907C081E468D066DB81E025
S1130A608093430123C0959907C083E45FD08EDB54
S1130A7082E0809343011AC0969907C084E456D05B
S1130A80B6DB83E08093430111C0979907C085E4E6
S1130A904DD0DEDB84E08093430108C0A89906C0F2
S1130AA086E444D006DC85E08093430160914301F1
S1130AB083E090E0FED02EC065E371E0CE01E8D083
S1130AC0892B41F5A89B07C085E430D0C1DB84E0C5
S1130AD0809343011AC0979B07C084E427D087DB27
S1130AE083E08093430111C0969B07C083E41ED02A
S1130AF04DDB82E08093430108C0959B06C081E4EE
S1130B0015D013DB81E0809343016091430183E0BE
S1130B1090E0CFD0DF91CF9108959093900089B960
S1130B2088E98AB98EE08093950008955D9BFECF95
S1130B308CB908955F9BFECF8CB10895CF93DF935A
S1130B40C82F8C3471F4F6DFC82F813311F4E2DB43
S1130B5003C0803309F4EADB6091400180E090E057
S1130B60A8D0CD3471F4E6DFC82F813311F4E9DB6A
S1130B7003C0803309F4F1DB6091410181E090E02E
S1130B8098D0CE3471F4D6DFC82F813311F4F0DB62
S1130B9003C0803309F4F8DB6091420182E090E005
S1130BA088D0C63409F043C0C5DFC82F8133A9F506
S1130BB0BCDA81E08093430180933E01BBDFC82F00
S1130BC0853581F5B7DFC82F823339F4DFDA82E067
S1130BD08093430180933E011AC0833339F407DBC9
S1130BE083E08093430180933E0111C0843339F440
S1130BF02FDB84E08093430180933E0108C085335A
S1130C0031F457DB85E08093430180933E0160918A
S1130C10430183E090E04DD005C0803319F454DAE9
S1130C20109243016091430183E090E042D0CA35C1
S1130C3061F580DF8133A1F471DDC0E4D1E0688126
S1130C4080E090E036D0698181E090E032D06A8122
S1130C5082E090E02ED06B8183E090E02AD015C032
S1130C60803399F4DFDDC0E4D1E0688180E090E076
S1130C7020D0698181E090E01CD06A8182E090E01C
S1130C8018D060E083E090E014D0DF91CF91089514
S1130C90FB01DC018D91019080190110D9F3990BAE
S1130CA00895E199FECF9FBB8EBBE09A99278DB33F
S1130CB00895262FE199FECF9FBB8EBB2DBB0FB6A7
S1130CC0F894E29AE19A0FBE01960895F894FFCF42
S1130CD00000010002000300350001620004350039
S1130CE0036200053500046200064001410142012F
S1130CF04831004C31004C32004C33004630004641
S10B0D003100553100443100BB
S9030000FC
