S0210000344C324654435F574954485F32344333324E5F454550524F4D2E73726563F7
S113000045C0000061C000005FC000005DC000008A
S11300105BC0000059C0000057C0000055C000007C
S113002053C0000051C000004FC000004DC000008C
S113003009C3000049C0000047C0000045C00000DB
S113004043C0000027C3000064C300003DC000009B
S11300503BC0000039C0000037C0000035C00000BC
S113006033C0000031C000002FC000002DC00000CC
S11300702BC0000029C0000027C0000025C00000DC
S113008023C0000021C000001FC0000011241FBEB7
S1130090CFEFD0E1DEBFCDBF11E0A0E0B1E0E8E4F6
S11300A0F4E100E00BBF02C007900D92A235B10746
S11300B0D9F721E0A2E5B1E001C01D92A336B20751
S11300C0E1F793D40C94220A9BCF1F93CF93DF9331
S11300D0D82F192FC62F38D280EA46D2812F44D286
S11300E08D2F42D28C2F40D237D2DF91CF911F91E6
S11300F00895CF93DF93C82FD92F26D280EA34D224
S11301008D2F32D28C2F30D21FD281EA2DD236D20B
S1130110C82F22D28C2FDF91CF910895CF93DF93F4
S113012085B38B7F85BB85B38D7F85BB85B38E7F80
S113013085BBC5E6D0E088818D7F888388818E7FEA
S1130140888385B38F7785BB88EC90E08AD28881D9
S11301508B7F888388EC90E084D28BB38F778BBBC2
S113016088EC90E07ED28BB38F7B8BBB88EC90E0E5
S113017078D2DF91CF910895CF93DF9385B38460D4
S113018085BB85B38D7F85BB85B38E7F85BBC5E677
S1130190D0E088818D7F888388818E7F888385B332
S11301A08F7785BB88EC90E05CD288818B7F8883D5
S11301B088EC90E056D28BB380688BBB88EC90E0DF
S11301C050D28BB38F7B8BBB88EC90E04AD2DF910B
S11301D0CF910895CF93DF9385B3846085BB85B3B6
S11301E0826085BB85B38E7F85BBC5E6D0E0888100
S11301F08D7F888388818E7F888385B38F7785BB45
S113020088EC90E02ED288818B7F888388EC90E004
S113021028D28BB38F778BBB88EC90E022D28BB340
S113022080648BBB88EC90E01CD2DF91CF91089561
S1130230CF93DF9385B3846085BB85B3826085BB30
S113024085B3816085BBC5E6D0E088818D7F8883D6
S113025088818E7F888385B38F7785BB88EC90E017
S113026000D288818460888388EC90E0FAD18BB3D3
S11302708F778BBB88EC90E0F4D18BB380648BBB1D
S113028088EC90E0EED1DF91CF910895CF93DF9386
S113029085B3846085BB85B3826085BB85B381608B
S11302A085BBC5E6D0E088818260888388818E7FA3
S11302B0888385B38F7785BB88EC90E0D2D1888121
S11302C08B7F888388EC90E0CCD18BB380688BBB28
S11302D088EC90E0C6D18BB380648BBB88EC90E053
S11302E0C0D1DF91CF910895CF93DF9385B384601C
S11302F085BB85B3826085BB85B3816085BBC5E65C
S1130300D0E088818260888388818160888385B316
S1130310806885BB88EC90E0A4D188818B7F88833A
S113032088EC90E09ED18BB38F778BBB88EC90E008
S113033098D18BB38F7B8BBB88EC90E092D1DF910B
S1130340CF91089582B38F7D82BB82B38F7E82BBAF
S113035082B3877F82BB82B38B7F82BBE5E6F0E00A
S113036080818F7E80838BB3877F8BBB88EC90E00A
S113037078D18BB38B7F8BBB88EC90E072D18BB33D
S11303808D7F8BBB88EC90E06CD18BB38E7F8BBB65
S113039088EC90E066C1089582B3806282BB82B328
S11303A08F7E82BB82B3877F82BB82B38B7F82BB0B
S11303B0E5E6F0E080818F7E80838BB3877F8BBB03
S11303C088EC90E04ED18BB38B7F8BBB88EC90E0B4
S11303D048D18BB382608BBB88EC90E042D18BB365
S11303E08E7F8BBB88EC90E03CC1089582B3806221
S11303F082BB82B3806182BB82B3877F82BB82B3BC
S11304008B7F82BBE5E6F0E080818F7E80838BB3B7
S1130410877F8BBB88EC90E024D18BB38B7F8BBB25
S113042088EC90E01ED18BB38D7F8BBB88EC90E081
S113043018D18BB381608BBB88EC90E012C1089516
S113044082B3806282BB82B3806182BB82B38860E4
S113045082BB82B38B7F82BBE5E6F0E080818F7E36
S113046080838BB3877F8BBB88EC90E0FAD08BB30F
S113047084608BBB88EC90E0F4D08BB38D7F8BBB16
S113048088EC90E0EED08BB381608BBB88EC90E07D
S1130490E8C0089582B3806282BB82B3806182BB6C
S11304A082B3886082BB82B3846082BBE5E6F0E0FD
S11304B080818F7E80838BB3877F8BBB88EC90E0B9
S11304C0D0D08BB38B7F8BBB88EC90E0CAD08BB33E
S11304D082608BBB88EC90E0C4D08BB381608BBB13
S11304E088EC90E0BEC0089582B3806282BB82B380
S11304F0806182BB82B3886082BB82B3846082BB2A
S1130500E5E6F0E08081806180838BB388608BBBFB
S113051088EC90E0A6D08BB38B7F8BBB88EC90E00B
S1130520A0D08BB38D7F8BBB88EC90E09AD08BB33B
S11305308E7F8BBB88EC90E094C00895109271007C
S113054088E480937000089584EA80937400809115
S113055074008823E4F7089584E9809374008091FB
S1130560740084FDFCCF08958093730084E8809325
S11305707400809174008823E4F7089584E88093DC
S11305807400809174008823E4F7809173000895C7
S113059082B3806882BB85B3806285BB81E080932F
S11305A05D01089582B38F7782BB85B38F7D85BB50
S11305B010925D01089585B3886085BB85B380641E
S11305C085BB81E080935E01089585B3877F85BBF9
S11305D085B38F7B85BB10925E01089582B38064DE
S11305E082BB8BB380628BBB81E080935F010895F3
S11305F082B38F7B82BB8BB38F7D8BBB10925F01E9
S1130600089585B3806185BB8BB380618BBB81E02A
S113061080936001089585B38F7E85BB8BB38F7EF5
S11306208BBB1092600108958EB588608EBD88E200
S11306309EE09BBD8ABD87B7806187BF8EB585600C
S11306408EBD08951F920F920FB60F9211248F93AF
S113065081E080935C018F910F900FBE0F901F90EB
S11306601895AC0190915C01992399F010925C016A
S113067020915601309157012F5F3F4F309357011E
S1130680209356012417350720F010925701109239
S1130690560108951F920F920FB60F9211240BB6B4
S11306A00F922F933F934F935F936F937F938F9307
S11306B09F93AF93BF93EF93FF939FB180915501A5
S11306C0823088F4E82FF0E0EE5AFE4F90838F5F7B
S11306D080935501823039F41092540182E591E0FF
S11306E0F7D2109255018EB180688EB9FF91EF91C7
S11306F0BF91AF919F918F917F916F915F914F9136
S11307003F912F910F900BBE0F900FBE0F901F9033
S113071018951F920F920FB60F9211240BB60F92D9
S11307202F933F934F935F936F937F938F939F93F5
S1130730AF93BF93EF93FF938CB187D5FF91EF9164
S1130740BF91AF919F918F917F916F915F914F91E5
S11307503F912F910F900BBE0F900FBE0F901F90E3
S11307601895EF92FF921F93CF93DF93CDB7DEB727
S11307702C970FB6F894DEBF0FBECDBF8091580101
S1130780909159019A83898380910801909109017C
S11307909C838B8380910601909107019E838D83B6
S11307A0809104019091050198878F8380910201C3
S11307B0909103019A8789878091000190910101AA
S11307C09C878B8710E014C0812F90E09C01235AF2
S11307D03E4F7901880F991FE1E0F0E0EC0FFD1F17
S11307E0E80FF91F8081918184DCF70180831F5F0A
S11307F0163050F32C960FB6F894DEBF0FBECDBF63
S1130800DF91CF911F91FF90EF900895EF92FF92A7
S11308100F931F93CF93DF93CDB7DEB7A0970FB697
S1130820F894DEBF0FBECDBF88E1EAE0F1E0DE015F
S1130830119601900D928A95E1F788E0E2E2F1E0E9
S1130840DE01599601900D928A95E1F720E046C0A9
S1130850822F90E0FC01EE0FFF1F41E050E04C0FAF
S11308605D1FE40FF51F008CF18DE02D30813323E3
S1130870A1F17C01EE0CFF1CD701A80FB91FAA0F30
S1130880BB1FA40FB51F0D911C911197F801308166
S113089041E050E0BA0112960C90129702C0660F24
S11308A0771F0A94E2F76327608313960D90BC9137
S11308B0A02D3C91F701E80FF91FEE0FFF1F81E017
S11308C090E08C0F9D1FE80FF91F058002C0440FB4
S11308D0551F0A94E2F743274C932F5F243008F402
S11308E0B7CFA0960FB6F894DEBF0FBECDBFDF9191
S11308F0CF911F910F91FF90EF9008958091610126
S11309008230A9F028F4882349F0813059F023C0BB
S11309108430B9F088F08530C9F01DC0FFDB109237
S11309206101089529DC81E080936101089552DC1E
S113093082E08093610108957BDC83E08093610110
S11309400895A4DC84E0809361010895CDDC85E002
S1130950809361010895E2DB109261010895809112
S113096062018230A9F028F4882349F0813059F0DB
S113097023C08430B9F088F08530C9F01DC0E2DCB2
S113098010926201089508DD81E080936201089568
S11309902DDD82E080936201089552DD83E080932F
S11309A06201089577DD84E08093620108959CDDFF
S11309B085E0809362010895C5DC10926201089578
S11309C07894BCDD31DE7AD187E690E02AD481B315
S11309D08E6F81BBE4E6F0E080818761808384B31D
S11309E08FEF84BB9AB38ABB0895EADFBADE0EDFC9
S11309F085DFB5DFFFCFCCDDDEDDF0DD02DE80910B
S1130A0061018330E9F028F4813041F0823079F0DB
S1130A1032C08430F1F0853029F12DC0ADDB81E4A2
S1130A200CD481E08093610180935B0168C0D2DBC8
S1130A3083E403D482E08093610180935B015FC00F
S1130A40F7DB84E4FAD383E08093610180935B0154
S1130A5056C01CDC85E4F1D384E08093610180936B
S1130A605B014DC041DC86E4E8D385E080936101FD
S1130A7080935B0144C080915B018330E9F028F4EA
S1130A80813041F0823079F032C08430F1F0853029
S1130A9029F12DC071DB81E4D0D381E08093610121
S1130AA080935B012CC096DB83E4C7D382E0809300
S1130AB0610180935B0123C0BBDB84E4BED383E08C
S1130AC08093610180935B011AC0E0DB85E4B5D3B8
S1130AD084E08093610180935B0111C005DC86E4AE
S1130AE0ACD385E08093610180935B0108C044DB53
S1130AF081E4A3D381E08093610180935B018091C1
S1130B0062018330E9F028F4813041F0823079F0D9
S1130B1032C08430F1F0853029F12DC03DDC8BE406
S1130B208CD381E08093620180935A0108955EDC46
S1130B308AE583D382E08093620180935A01089509
S1130B407FDC88E57AD383E08093620180935A0145
S1130B500895A0DC89E471D384E0809362018093DA
S1130B605A010895C1DC8AE468D385E08093620168
S1130B7080935A01089580915A018330E9F028F452
S1130B80813041F0823079F032C08430F1F0853028
S1130B9029F12DC001DC8BE450D381E08093620104
S1130BA080935A01089522DC8AE547D382E080933A
S1130BB0620180935A01089543DC88E53ED383E0C3
S1130BC08093620180935A01089564DC89E435D3EB
S1130BD084E08093620180935A01089585DC8AE45D
S1130BE02CD385E08093620180935A010895D4DB6D
S1130BF08BE423D381E08093620180935A010895AA
S1130C00D1DCE3DCF5DC07DD89DA9CDBEDE5F1E042
S1130C101482158208950F931F93CF93DF93CDB75A
S1130C20DEB72C970FB6F894DEBF0FBECDBF809110
S1130C305801909159019A83898380910801909178
S1130C4009019C838B8380910601909107019E8307
S1130C508D83809104019091050198878F83809101
S1130C600201909103019A878987809100019091F4
S1130C7001019C878B8700E010E012C0D801A35AC1
S1130C80BE4FF801EE0FFF1F81E090E08C0F9D1F17
S1130C90E80FF91F6C918081918117DA0F5F1F4F64
S1130CA0063011055CF32C960FB6F894DEBF0FBE28
S1130CB0CDBFDF91CF911F910F91089587B38061CC
S1130CC087BB8DB180648DB98DB180688DB908956D
S1130CD0CF93DF93EC016AE271E0ABD3892B19F473
S1130CE081E5ABD29BC26DE271E0CE01A2D3892B28
S1130CF011F582B3805882BB95B380E2892785BB06
S1130D0090915D0181E0911180E090915D018917DE
S1130D1009F484C2CDE5D1E08883688180915801CB
S1130D2090915901D2D98881813011F483E501C0B1
S1130D3083E783D273C260E371E0CE017AD3892B57
S1130D4019F595B388E0892785BB95B380E4892795
S1130D5085BB90915E0181E0911180E090915E01EC
S1130D60891709F45BC2CDE5D1E08983698180915B
S1130D70080190910901A9D98981813011F480E594
S1130D8001C080E75AD24AC263E371E0CE0151D375
S1130D90892B19F592B380E4892782BB9BB380E247
S1130DA089278BBB90915F0181E0911180E0909144
S1130DB05F01891709F432C2CDE5D1E08A836A81E3
S1130DC0809106019091070180D98A81813011F4C4
S1130DD082E501C082E731D221C266E371E0CE012F
S1130DE028D3892B11F595B380E1982795BB9BB344
S1130DF089278BBB9091600181E0911180E09091F3
S1130E006001891709F40AC2CDE5D1E08B836B81B7
S1130E10809104019091050158D98B81813011F49E
S1130E2087E401C087E609D2F9C169E371E0CE0124
S1130E3000D3892B09F072C0809161018330C9F01D
S1130E4028F4813041F0823069F028C08430C1F048
S1130E508530E9F023C090D981E4EFD181E080931B
S1130E60610154C0B7D983E4E8D182E08093610181
S1130E704DC0DED984E4E1D183E08093610146C0B2
S1130E8005DA85E4DAD184E0809361013FC02CDA8D
S1130E9086E4D3D185E08093610138C080915B0101
S1130EA08330C9F028F4813041F0823069F028C0E1
S1130EB08430C1F08530E9F023C05ED981E4BDD12E
S1130EC081E08093610122C085D983E4B6D182E0B8
S1130ED0809361011BC0ACD984E4AFD183E08093DB
S1130EE0610114C0D3D985E4A8D184E08093610161
S1130EF00DC0FAD986E4A1D185E08093610106C0D2
S1130F003BD981E49AD181E08093610160916101D0
S1130F108091020190910301D8D880C16CE371E003
S1130F20CE0187D2892B51F482E487D1F7D860E0CF
S1130F308091020190910301C8D870C16FE371E000
S1130F40CE0177D2892B09F072C08091620183307F
S1130F50C9F028F4813041F0823069F028C084302F
S1130F60C1F08530E9F023C017DA8BE466D181E063
S1130F708093620154C03ADA8AE55FD182E08093BB
S1130F8062014DC05DDA88E558D183E08093620147
S1130F9046C080DA89E451D184E0809362013FC085
S1130FA0A3DA8AE44AD185E08093620138C0809153
S1130FB05A018330C9F028F4813041F0823069F05D
S1130FC028C08430C1F08530E9F023C0E5D98BE432
S1130FD034D181E08093620122C008DA8AE52DD100
S1130FE082E0809362011BC02BDA88E526D183E07E
S1130FF08093620114C04EDA89E41FD184E08093A7
S113100062010DC071DA8AE418D185E0809362012F
S113101006C0C2D98BE411D181E080936201609152
S1131020620180910001909101014FD8F7C062E400
S113103071E0CE01FED1892B51F487E5FED082D92F
S113104060E080910001909101013FD8E7C065E420
S113105071E0CE01EED1892B09F038C0AA9907C0FE
S113106081E4EBD089D881E08093610127C0A999FC
S113107007C083E4E2D0AED882E0809361011EC051
S1131080A89907C084E4D9D0D3D883E080936101C0
S113109015C08091650081FD07C085E4CED0F6D8E7
S11310A084E0809361010AC08091650080FD06C0E0
S11310B086E4C3D019D985E0809361016091610110
S11310C0809102019091030100D8A8C068E471E006
S11310D0CE01AFD1892B09F037C0959907C08BE4B5
S11310E0ACD05AD981E08093620125C0949907C09D
S11310F08AE5A3D07BD982E0809362011CC09399D6
S113110007C088E59AD09CD983E08093620113C01C
S1131110929907C089E491D0BDD984E0809362019B
S11311200AC08091650084FD06C08AE486D0DCD9BB
S113113085E0809362016091620180910001909149
S113114001010E9465006AC06BE471E0CE0171D1B7
S1131150892B89F58091650080FF07C085E46DD0F7
S113116095D884E0809361011DC08091650081FF62
S113117007C084E462D05CD883E08093610112C02C
S1131180A89B07C083E459D025D882E080936101ED
S113119009C0A99B07C081E450D00E94BC0081E033
S11311A0809361016091610180910201909103013A
S11311B00E94650033C06EE471E0CE013AD1892B00
S11311C069F58091650084FF07C089E436D062D94F
S11311D084E0809362011AC0929B07C088E52DD0F9
S11311E02FD983E08093620111C0939B07C08AE5E5
S11311F024D0FCD882E08093620108C0949B06C08E
S11312008BE41BD0C9D881E08093620160916201B4
S113121080910001909101010E946500DF91CF91BE
S113122008959093900089B988E18AB98AB1806859
S11312308AB98EE08093950008955D9BFECF8CB9AA
S113124008955F9BFECF8CB108958C3489F4F9DF47
S1131250813311F49DD903C0803309F4A3D960917B
S11312605D0180915801909159010C946500089595
S11312708D3489F4E6DF813311F49DD903C08033C2
S113128009F4A3D960915E0180910801909109014C
S11312900C94650008958E3489F4D3DF813311F4FE
S11312A09DD903C0803309F4A3D960915F01809173
S11312B00601909107010C9465000895803589F426
S11312C0C0DF813311F49DD903C0803309F4A3D95D
S11312D06091600180910401909105010C94650076
S11312E00895863409F04EC0ACDF8133D9F50E94ED
S11312F0BC0081E08093610180935B01A2DF8535AE
S113130041F59FDF823341F40E94EA0082E080933A
S1131310610180935B011DC0833341F40E94180175
S113132083E08093610180935B0113C0843341F4B3
S11313300E94460184E08093610180935B0109C0AF
S1131340853339F40E94740185E0809361018093B0
S11313505B016091610180910201909103010C9401
S113136065000895803309F063C00E948E00EDE5A6
S1131370F1E01482648180910201909103010C9444
S113138065000895873409F048C05BDF8133B1F507
S113139003D881E08093620180935A0152DF88343C
S11313A021F54FDF823339F421D882E08093620142
S11313B080935A011AC0833339F442D883E080936E
S11313C0620180935A0111C0843339F463D884E0F4
S11313D08093620180935A0108C0853331F484D824
S11313E085E08093620180935A016091620180914B
S11313F00001909101010C94650008958033C1F4BB
S11314000E94A201EDE5F1E0158265818091000161
S1131410909101010C94650008958A3549F411DF17
S1131420813311F4E8DA03C0803309F4E9DBF3CB48
S11314300895FB01DC018D91019080190110D9F30D
S10B1440990B0895F894FFCF05
S1131448050004000300020001003200073500050E
S11314583500033500063200063B00053500043B21
S113146800045D015E015F0160015031004C3100F0
S11314784C32004C33004C340046300046310046B0
S113148832004633005531005532004431004432AD
S105149800004E
S9030000FC
