S0120000334C31465F524554524F2E7372656331
S11300000C9466000C9483000C9483000C9483007D
S11300100C9483000C9483000C943B010C94830097
S11300200C9483000C9483000C9483000C94830040
S11300300C9483000C9490020C9483000C94830021
S11300400C9483000C9483000C9483000C94830020
S11300500C945A020C9483000C9483000C94830037
S11300600C9483000C9483000C9483000C94830000
S11300700C9483000C9483000C9483000C948300F0
S11300800C9483000C9483000C9483000C948300E0
S11300900C9483000C9483000C9483000C948300D0
S11300A00C9483000C9483000C9483000C948300C0
S11300B00C9483000C9483000C9483000C948300B0
S11300C00C9483000C9483000C94830011241FBEB1
S11300D0CFEFD8E0DEBFCDBF11E0A0E0B1E0E6EBAA
S11300E0F9E002C005900D92A831B107D9F721E0DB
S11300F0A8E1B1E001C01D92A132B207E1F70E946C
S113010073030C94D9040C9400001F93CF93DF93D2
S1130110D82F192FC62F0E94130180EA0E941F01B5
S1130120812F0E941F018D2F0E941F018C2F0E947E
S11301301F010E941B01DF91CF911F910895CF935E
S1130140DF93C82FD92F0E94130180EA0E941F0158
S11301508D2F0E941F018C2F0E941F010E941301EA
S113016081EA0E941F010E942901C82F0E941B01DD
S11301708C2FDF91CF9108958EB1877F8EB98EB188
S11301808B7F8EB98BB18F778BB98BB18F7B8BB90A
S113019008958EB1877F8EB98EB184608EB98BB18C
S11301A08F778BB98BB18F7B8BB908958EB18860B3
S11301B08EB98EB18B7F8EB98BB180688BB98BB1C0
S11301C08F7B8BB908958EB188608EB98EB18460AF
S11301D08EB98BB18F778BB98BB18F7B8BB9089527
S11301E08EB1877F8EB98EB184608EB98BB18068F1
S11301F08BB98BB18F7B8BB908958EB1877F8EB904
S11302008EB18B7F8EB98BB18F778BB98BB18064B4
S11302108BB908951092B90088E48093B80084E003
S11302208093BC00089584EA8093BC008091BC0054
S11302308823E4F7089584E98093BC0008958093AB
S1130240BB0084E88093BC008091BC008823E4F761
S1130250089584E88093BC008091BC008823E4F76F
S11302608091BB00089584E0809368008CE38093C0
S11302706D0080E008951F920F920FB60F92112423
S11302802F933F934F935F936F937F938F939F939A
S1130290AF93BF93CF93DF93EF93FF9380910701C5
S11302A0882361F02FEF81EE94E02150804090404C
S11302B0E1F700C0000010920701E9C02FEF80E7CA
S11302C092E0215080409040E1F700C0000096B1D8
S11302D08091000189279093000182FF21C09BB186
S11302E088E089278BB990911C0181E0911180E00D
S11302F090911C01891709F4CAC0CCE1D1E088832C
S1130300688180911801909119010E94850088816B
S1130310813011F480E501C081E50E94E003B7C09B
S113032083FF21C09BB180E189278BB990911D0186
S113033081E0911180E090911D01891709F4A7C013
S1130340CCE1D1E089836981809105019091060116
S11303500E9485008981813011F482E501C083E522
S11303600E94E00394C084FF21C09BB180E28927EE
S11303708BB990911E0181E0911180E090911E0152
S1130380891709F484C0CCE1D1E08A836A81809121
S11303900301909104010E9485008A81813011F447
S11303A084E501C085E50E94E00371C085FF6FC04C
S11303B090911F0181E0911180E090911F018917B4
S11303C009F465C0ECE1F1E083838381813009F0B5
S11303D04FC080911A01833009F128F4813041F033
S11303E0823089F03CC0843021F1853069F137C016
S11303F00E94C90081E40E94E00381E080931F0110
S113040080931A013CC00E94D60083E40E94E0035A
S113041082E080931F0180931A0131C00E94E3009F
S113042084E40E94E00383E080931F0180931A0117
S113043026C00E94F00085E40E94E00384E08093DB
S11304401F0180931A011BC00E94FD0086E40E94D4
S1130450E00385E080931F0180931A0110C00E947D
S1130460E30084E40E94E00383E080931F0107C05B
S11304700E94BC0082E40E94E00310921F0160917C
S11304801F0180910101909102010E948500FF915A
S1130490EF91DF91CF91BF91AF919F918F917F9118
S11304A06F915F914F913F912F910F900FBE0F90DD
S11304B01F9018951F920F920FB60F9211242F932D
S11304C03F934F935F936F937F938F939F93AF93D8
S11304D0BF93EF93FF938091C6000E94F903FF91AD
S11304E0EF91BF91AF919F918F917F916F915F91A8
S11304F04F913F912F910F900FBE0F901F90189521
S11305008AB1886F8AB98DB18C608DB987B1837CCB
S113051087B988B18C6388B986B180932001089526
S11305201F920F920FB60F9211248F9381E0809344
S11305301B018F910F900FBE0F901F901895EF9293
S1130540FF921F93CF93DF93CDB7DEB728970FB6F3
S1130550F894DEBF0FBECDBF8091180190911901B0
S11305609A83898380910501909106019C838B83F2
S113057080910301909104019E838D8380910101F8
S11305809091020198878F8310E015C0812F90E02D
S11305909C01245E3E4F7901880F991FE1E0F0E051
S11305A0EC0FFD1FE80FF91F808191810E949F00CD
S11305B0F70180831F5F143048F328960FB6F89430
S11305C0DEBF0FBECDBFDF91CF911F91FF90EF90A3
S11305D00895CF93DF93CDB7DEB72F970FB6F89476
S11305E0DEBF0FBECDBF89E0E8E0F1E0DE01119689
S11305F001900D928A95E1F786E0E1E1F1E0DE01F8
S11306001A9601900D928A95E1F720E027C0822F77
S113061090E0FC01EE0FFF1F41E050E04C0F5D1F26
S1130620E40FF51F0184F285E02D30813323A9F016
S1130630FC01EE0FFF1F8E0F9F1FFA01E80FF91F39
S1130640A081B1813C9181E090E0028002C0880FDA
S1130650991F0A94E2F783278C932F5F2330B8F213
S11306602F960FB6F894DEBF0FBECDBFDF91CF91AA
S1130670089580911F018330B9F028F4813041F04E
S1130680823061F023C08430A9F08530C9F01EC0E7
S11306900E94C90081E080931F011CC00E94D60003
S11306A082E080931F0116C00E94E30083E08093E0
S11306B01F0110C00E94F00084E080931F010AC053
S11306C00E94FD0085E080931F0104C00E94BC00CD
S11306D010921F0160911F0180910101909102010C
S11306E00E948500089578940E940A010E949F0246
S11306F00E94E9020E9439030E9480020E94330191
S113070083E390E00E94E703FFCF8BB180628BB953
S1130710ECE1F1E081E080839BB190619BB981833E
S11307209BB198609BB9828383818330D9F028F48C
S1130730813041F0823071F008958430D9F08530F1
S113074009F108950E94C90081E080931F018093FC
S11307501A0108950E94D60082E080931F018093BD
S11307601A0108950E94E30083E080931F0180939F
S11307701A0108950E94F00084E080931F01809381
S11307801A0108950E94FD0085E080931F01809363
S11307901A010895CF93DF938BB18F7D8BB9CCE190
S11307A0D1E018828BB18F7E8BB919828BB1877F90
S11307B08BB91A820E94BC001B82DF91CF910895ED
S11307C09091C00095FFFCCF8093C600089590934C
S11307D0C5008093C40088E98093C10086E08093BB
S11307E0C20008958091C0008823E4F78091C60078
S11307F00895CF93DF93C82F8C34E1F40E94F20361
S1130800C82F813339F48BB188608BB981E0809330
S11308101C0107C0803329F48BB1877F8BB91092F8
S11308201C0160911C0180911801909119010E9492
S113083085003BC08D34E1F40E94F203C82F81335C
S113084039F48BB180618BB981E080931D0107C0BD
S1130850803329F48BB18F7E8BB910921D01609186
S11308601D0180910501909106010E9485001DC023
S11308708E34D9F40E94F203C82F813339F48BB13A
S113088080628BB981E080931E0107C0803329F414
S11308908BB18F7D8BB910921E0160911E018091E6
S11308A00301909104010E948500C63409F053C0ED
S11308B00E94F203C82F813309F03FC00E94C9008F
S11308C081E080931A0180931F010E94F203C82FD4
S11308D0853551F50E94F203C82F823341F40E94FA
S11308E0D60082E080931A0180931F011DC08333D8
S11308F041F40E94E30083E080931A0180931F0176
S113090013C0843341F40E94F00084E080931A0100
S113091080931F0109C0853339F40E94FD0085E0EE
S113092080931A0180931F0160911F01809101013E
S1130930909102010E9485000EC0803361F40E94F0
S1130940BC00ECE1F1E0138263818091010190919C
S113095002010E948500CA3549F50E94F2038133E1
S113096019F40E94850304C0803311F40E94CA0361
S1130970CCE1D1E0688180911801909119010E9425
S11309808500698180910501909106010E9485008E
S11309906A8180910301909104010E9485006B811A
S11309A080910101909102010E948500DF91CF9115
S10909B00895F894FFCF46
S11309B6FF030002000100012B00032B00042B009F
S10B09C6051C011D011E0100C6
S9030000FC
