S00C0000746573742E7372656358
S11300000C9466000C9483000C9483000C9483007D
S11300100C9483000C9483000C9432010C948300A0
S11300200C9483000C9483000C9483000C94830040
S11300300C9483000C9484030C9483000C9483002C
S11300400C9483000C9483000C9483000C94830020
S11300500C944F020C9483000C9483000C94830042
S11300600C9483000C9483000C9483000C94830000
S11300700C9483000C9483000C9483000C948300F0
S11300800C9483000C9483000C9483000C948300E0
S11300900C9483000C9483000C9483000C948300D0
S11300A00C9483000C9483000C9483000C948300C0
S11300B00C9483000C9483000C9483000C948300B0
S11300C00C9483000C9483000C94830011241FBEB1
S11300D0CFEFD8E0DEBFCDBF11E0A0E0B1E0E8E7AC
S11300E0F9E002C005900D92A831B107D9F721E0DB
S11300F0A8E1B1E001C01D92A332B207E1F70E946A
S113010081040C94BA040C9400001F93CF93DF93E2
S1130110D82F192FC62F0E940A0180EA0E941601C7
S1130120812F0E9416018D2F0E9416018C2F0E9490
S113013016010E941201DF91CF911F910895CF9370
S1130140DF93C82FD92F0E940A0180EA0E9416016A
S11301508D2F0E9416018C2F0E9416010E940A0105
S113016081EA0E9416010E942001C82F0E941201F8
S11301708C2FDF91CF9108958EB1877F8EB98EB188
S11301808B7F8EB98BB18F778BB98BB18F7B8BB90A
S113019008958EB1877F8EB98EB184608EB98BB18C
S11301A08F778BB98BB18F7B8BB908958EB18860B3
S11301B08EB98EB18B7F8EB98BB180688BB98BB1C0
S11301C08F7B8BB908958EB188608EB98EB18460AF
S11301D08EB98BB18F778BB98BB18F7B8BB9089527
S11301E08EB1877F8EB98EB184608EB98BB18068F1
S11301F08BB98BB18F7B8BB908958EB1877F8EB904
S11302008EB18B7F8EB98BB18F778BB98BB18064B4
S11302108BB9089584EA8093BC008091BC00882344
S1130220E4F7089584E98093BC0008958093BB00AB
S113023084E88093BC008091BC008823E4F708958F
S113024084E88093BC008091BC008823E4F780910B
S1130250BB00089584E0809368008CE380936D0074
S113026080E008951F920F920FB60F9211240F93FE
S11302701F932F933F934F935F936F937F938F932A
S11302809F93AF93BF93CF93EF93FF938091070115
S1130290882361F02FEF81EE94E02150804090405C
S11302A0E1F700C0000010920701E5C0EFEFF0E7AE
S11302B022E0E150F0402040E1F700C0000086B1A8
S11302C0C0910001C82780930001C2FF23C09BB1E5
S11302D088E089278BB990911E0181E0911180E01B
S11302E090911E018917B1F00EE111E0F8018083AD
S11302F0608180911A0190911B010E948500F80190
S11303008081813021F480E50E94A10403C081E54D
S11303100E94A104C3FF23C09BB180E189278BB94C
S113032090911F0181E0911180E090911F01891744
S1130330B1F00EE111E0F801818361818091050142
S1130340909106010E948500F8018181813021F499
S113035082E50E94A10403C083E50E94A104C4FFB6
S113036023C09BB180E289278BB99091200181E061
S1130370911180E0909120018917B1F00EE111E014
S1130380F8018283628180910301909104010E94AB
S11303908500F8018281813021F484E50E94A10462
S11303A003C085E50E94A104C5FF65C090912101A9
S11303B081E0911180E090912101891709F45BC0DB
S11303C0EEE1F1E083838381813009F045C08091BF
S11303D01C018330E9F028F4813041F0823079F057
S11303E032C08430F1F0853029F12DC00E94C9005B
S11303F081E40E94A10481E08093210134C00E9421
S1130400D60083E40E94A10482E0809321012BC0E2
S11304100E94E30084E40E94A10483E0809321010C
S113042022C00E94F00085E40E94A10484E080932D
S1130430210119C00E94FD0086E40E94A10485E008
S11304408093210110C00E94E30084E40E94A1046F
S113045083E08093210107C00E94BC0082E40E94D3
S1130460A1041092210160912101809101019091D8
S113047002010E948500FF91EF91CF91BF91AF914E
S11304809F918F917F916F915F914F913F912F91A8
S11304901F910F910F900FBE0F901F9018951F92F0
S11304A00F920FB60F9211242F933F934F935F93A4
S11304B06F937F938F939F93AF93BF93CF93DF9368
S11304C0EF93FF93C091C600CC34E1F40E94B304CF
S11304D0C82F813339F48BB188608BB981E0809364
S11304E01E0107C0803329F48BB1877F8BB910922A
S11304F01E0160911E0180911A0190911B010E94BE
S113050085003BC0CD34E1F40E94B304C82F81338D
S113051039F48BB180618BB981E080931F0107C0EE
S1130520803329F48BB18F7E8BB910921F016091B7
S11305301F0180910501909106010E9485001DC054
S1130540CE34D9F40E94B304C82F813339F48BB16B
S113055080628BB981E08093200107C0803329F445
S11305608BB18F7D8BB91092200160912001809115
S11305700301909104010E948500C63409F053C020
S11305800E94B304C82F813309F03FC00E94C90000
S113059081E080931C01809321010E94B304C82F41
S11305A0853551F50E94B304C82F823341F40E946B
S11305B0D60082E080931C01809321011DC0833307
S11305C041F40E94E30083E080931C0180932101A5
S11305D013C0843341F40E94F00084E080931C0132
S11305E08093210109C0853339F40E94FD0085E020
S11305F080931C018093210160912101809101016C
S1130600909102010E9485000EC0803361F40E9423
S1130610BC00EEE1F1E013826381809101019091CD
S113062002010E948500CA3509F04BC00E94B30440
S11306308133B1F48BB180628BB98BB180618BB99A
S11306408BB188608BB90E94E300EEE1F1E081E0B8
S113065080838183828383E0838380931C0113C01E
S1130660803389F48BB18F7D8BB98BB18F7E8BB93D
S11306708BB1877F8BB90E94BC00EEE1F1E0108260
S1130680118212821382CEE1D1E0688180911A0135
S113069090911B010E9485006981809105019091D0
S11306A006010E9485006A818091030190910401F2
S11306B00E9485006B8180910101909102010E944A
S11306C08500FF91EF91DF91CF91BF91AF919F9101
S11306D08F917F916F915F914F913F912F910F90E7
S11306E00FBE0F901F9018958AB1886F8AB98DB18B
S11306F08C608DB987B1837C87B988B18C6388B9E4
S113070086B18093220108951F920F920FB60F9223
S113071011248F9381E080931D018F910F900FBE60
S11307200F901F901895AC0190911D01992399F099
S113073010921D0120911801309119012F5F3F4F34
S113074030931901209318012417350720F01092D3
S11307501901109218010895EF92FF921F93CF93FD
S1130760DF93CDB7DEB728970FB6F894DEBF0FBE80
S1130770CDBF80911A0190911B019A838983809146
S11307800501909106019C838B83809103019091D4
S113079004019E838D8380910101909102019887C9
S11307A08F8310E015C0812F90E09C01225E3E4FA4
S11307B07901880F991FE1E0F0E0EC0FFD1FE80FCD
S11307C0F91F808191810E949F00F70180831F5F40
S11307D0143048F328960FB6F894DEBF0FBECDBF91
S11307E0DF91CF911F91FF90EF900895CF93DF9306
S11307F0CDB7DEB72F970FB6F894DEBF0FBECDBFCF
S113080089E0E8E0F1E0DE01119601900D928A950D
S1130810E1F786E0E1E1F1E0DE011A9601900D9244
S11308208A95E1F720E027C0822F90E0FC01EE0FCB
S1130830FF1F41E050E04C0F5D1FE40FF51F0184E2
S1130840F285E02D30813323A9F0FC01EE0FFF1F68
S11308508E0F9F1FFA01E80FF91FA081B1813C910F
S113086081E090E0028002C0880F991F0A94E2F7A9
S113087083278C932F5F2330B8F22F960FB6F8940A
S1130880DEBF0FBECDBFDF91CF91089580912101CE
S1130890811105C00E94BC0010922101089580912D
S11308A02101813031F40E94C90081E0809321014B
S11308B0089580912101823031F40E94D60082E0B3
S11308C080932101089580912101833031F40E94A5
S11308D0E30083E080932101089580912101843015
S11308E031F40E94F00084E0809321010895809106
S11308F02101853029F40E94FD0085E080932101C7
S113090008950E9474030E942A0183E390E00E94E8
S1130910A804789484E690E00E9493030E94AC03B8
S113092084E690E00E9493030E94F60384E690E03C
S11309300E9493030E94460484E690E00E9493037D
S1130940FFCF9091C00095FFFCCF8093C60008951F
S11309509093C5008093C40088E98093C10086E029
S11309608093C20008958091C0008823E4F78091A9
S10B0970C6000895F894FFCFBE
S1130978FF030002000100012B00032B00042B00DD
S10B0988051E011F01200100FE
S9030000FC
