:100000000C9466000C9483000C9483000C94830081
:100010000C9483000C9483000C9483000C94830054
:100020000C9483000C9483000C9483000C94830044
:100030000C9483000C9483000C9483000C94830034
:100040000C948A000C9483000C9483000C940D078C
:100050000C9483000C9483000C9483000C94830014
:100060000C9483000C9483000C9483000C94830004
:100070000C9483000C9483000C9483000C948300F4
:100080000C9483000C9483000C9483000C948300E4
:100090000C9483000C9483000C9483000C947F06D2
:1000A0000C9483000C9483000C9483000C948300C4
:1000B0000C9483000C9483000C9483000C948300B4
:1000C0000C9483000C9483000C94830011241FBEB5
:1000D000CFEFD8E0DEBFCDBF11E0A0E0B1E0EEE2AF
:1000E000F1E202C005900D92AC3BB107D9F722E0D6
:1000F000ACEBB1E001C01D92A838B207E1F70E9455
:10010000DE040C9495100C9400000E94CA060E9414
:10011000E60508951F920F920FB60F9211242F93A8
:100120003F934F935F936F937F938F939F93AF937F
:10013000BF93EF93FF930E94330685B3816085BB25
:10014000FF91EF91BF91AF919F918F917F916F91AF
:100150005F914F913F912F910F900FBE0F901F9085
:100160001895DC0140E050E080E015C0FD01E40F8F
:10017000F51F9081892720E00AC0882334F490E09D
:10018000880F991F97E0892701C0880F2F5F2830BB
:10019000A0F34F5F5F4F4617570740F3089584B1B0
:1001A000806B84B980E58CBD85B1806185B9089587
:1001B00095B19F7E95B98EBD0DB407FEFDCF85B17B
:1001C000806185B908950F931F93CF93DF938C01BE
:1001D000C0E0D0E00CC00E94D8002FEF80E792E092
:1001E000215080409040E1F700C000002196F801C6
:1001F000EC0FFD1F80818111EECFDF91CF911F9118
:100200000F9108951F93CF93DF9300D01F92CDB726
:10021000DEB78091D9018093D80180E090E00E9400
:10022000700680788093D9018823F1F18091D801FC
:1002300081113AC08091D7018F5F8093D7018130BF
:10024000B1F419821A821B828CE4898381E38A8348
:1002500062E070E0CE0101960E94B100182FCE013D
:1002600001960E94E300812F0E94D8001DC08230B9
:10027000D9F482EB91E00E94E30019821A821B827A
:100280008CE4898381E38A8362E070E0CE01019689
:100290000E94B100182FCE0101960E94E300812F29
:1002A0000E94D8001092D7010F900F900F90DF910D
:1002B000CF911F9108951F93CF93DF9300D01F928A
:1002C000CDB7DEB78091D6018093D50182E090E072
:1002D0000E94700680788093D6018823D1F18091A6
:1002E000D501811136C08091D4018F5F8093D401F4
:1002F0008130B1F419821A821B828CE4898382E3F3
:100300008A8362E070E0CE0101960E94B100182F4E
:10031000CE0101960E94E300812F0E94D80019C0EF
:100320008230B9F419821A821B828CE4898382E3B9
:100330008A8362E070E0CE0101960E94B100182F1E
:10034000CE0101960E94E300812F0E94D8001092F6
:10035000D4010F900F900F90DF91CF911F910895CE
:100360001F93CF93DF9300D01F92CDB7DEB780915C
:10037000D3018093D20181E090E00E9470068078E2
:100380008093D3018823D1F18091D201811136C0AD
:100390008091D1018F5F8093D1018130B1F41982B6
:1003A0001A821B828CE4898383E38A8362E070E093
:1003B000CE0101960E94B100182FCE0101960E9435
:1003C000E300812F0E94D80019C08230B9F419824D
:1003D0001A821B828CE4898383E38A8362E070E063
:1003E000CE0101960E94B100182FCE0101960E9405
:1003F000E300812F0E94D8001092D1010F900F903E
:100400000F90DF91CF911F9108951F93CF93DF93AA
:1004100000D01F92CDB7DEB78091D0018093CF017D
:1004200083E090E00E94700680788093D00188235A
:10043000D1F18091CF01811136C08091CE018F5FC3
:100440008093CE018130B1F419821A821B828CE430
:10045000898384E38A8362E070E0CE0101960E9482
:10046000B100182FCE0101960E94E300812F0E9457
:10047000D80019C08230B9F419821A821B828CE428
:10048000898384E38A8362E070E0CE0101960E9452
:10049000B100182FCE0101960E94E300812F0E9427
:1004A000D8001092CE010F900F900F90DF91CF9156
:1004B0001F9108951F93CF93DF9300D01F92CDB764
:1004C000DEB78091CD018093CC0184E090E00E9462
:1004D000700680788093CD01882309F447C080910D
:1004E000CC01811143C08091CB018F5F8093CB0100
:1004F0008130F1F419821A821B8286E4898380E3B9
:100500008A8362E070E0CE0101960E94B100182F4C
:10051000CE0101960E94E300812F0E94D80081E065
:100520008093CB0161E080E090E00E9487101EC0C4
:100530008230E1F419821A821B8286E4898381E386
:100540008A8362E070E0CE0101960E94B100182F0C
:10055000CE0101960E94E300812F0E94D8001092E4
:10056000CB0160E080E090E00E9487100F900F9038
:100570000F90DF91CF911F9108951F93CF93DF9339
:1005800000D01F92CDB7DEB78091CA018093C90118
:1005900085E090E00E94700680788093CA018823ED
:1005A00059F09091C901911107C01092DD0110928C
:1005B000DC0191E09093C801882351F08091DC0127
:1005C0009091DD0101969093DD018093DC0132C0B2
:1005D000811130C08091C901882361F18091DC01D3
:1005E0009091DD01892B01F18091DC019091DD0179
:1005F000883C9105C8F48091C8018130A9F4198222
:100600001A821B8285E5898381E38A8362E070E038
:10061000CE0101960E94B100182FCE0101960E94D2
:10062000E300812F0E94D8001092DD011092DC01BE
:100630001092C8010F900F900F90DF91CF911F91F2
:1006400008951F93CF93DF9300D01F92CDB7DEB7ED
:100650008091C7018093C60186E090E00E947006F9
:1006600080788093C701882359F09091C601911139
:1006700007C01092DB011092DA0191E09093C5015E
:10068000882351F08091DA019091DB0101969093DB
:10069000DB018093DA0132C0811130C08091C60144
:1006A000882361F18091DA019091DB01892B01F1BE
:1006B0008091DA019091DB01883C9105C8F480912A
:1006C000C5018130A9F419821A821B8284E48983CE
:1006D00081E38A8362E070E0CE0101960E94B1005E
:1006E000182FCE0101960E94E300812F0E94D800AE
:1006F0001092DB011092DA011092C5010F900F9059
:100700000F90DF91CF911F9108951F93CF93DF93A7
:1007100000D01F92CDB7DEB78091C4018093C30192
:1007200087E090E00E94700680788093C40188235F
:1007300009F447C08091C301811143C08091C20177
:100740008F5F8093C2018130F1F419821A821B827B
:1007500086E4898382E38A8362E070E0CE010196B9
:100760000E94B100182FCE0101960E94E300812F54
:100770000E94D80081E08093C20161E081E090E0B6
:100780000E9487101EC08230E1F419821A821B82F7
:1007900086E4898383E38A8362E070E0CE01019678
:1007A0000E94B100182FCE0101960E94E300812F14
:1007B0000E94D8001092C20160E081E090E00E94A7
:1007C00087100F900F900F90DF91CF911F91089598
:1007D0001F93CF93DF9300D01F92CDB7DEB78091E8
:1007E000C1018093C00188E090E00E94700680788B
:1007F0008093C1018823F1F08091C00181111AC05A
:100800008091BF018F5F8093BF0119821A821B8282
:1008100085E5898382E38A8362E070E0CE010196F8
:100820000E94B100182FCE0101960E94E300812F93
:100830000E94D8000F900F900F90DF91CF911F91E1
:1008400008951F93CF93DF9300D01F92CDB7DEB7EB
:100850008091BE018093BD0189E090E00E94700606
:1008600080788093BE018823F1F08091BD018111D1
:100870001AC08091BC018F5F8093BC0119821A82DB
:100880001B8284E4898382E38A8362E070E0CE0184
:1008900001960E94B100182FCE0101960E94E3003C
:1008A000812F0E94D8000F900F900F90DF91CF9171
:1008B0001F9108951F93CF93DF9300D01F92CDB760
:1008C000DEB70E94F5058091E201813009F045C054
:1008D0001092E2010E9402010E945B010E94B0019D
:1008E0000E9405020E945A020E94BD020E9421033A
:1008F0000E9485030E94E8030E9421048091DC018C
:100900009091DD01883C910540F18091DA01909150
:10091000DB01883C910508F119821A821B8280E56F
:10092000898381E38A8362E070E0CE0101960E94B0
:10093000B100182FCE0101960E94E300812F0E9482
:10094000D8001092DD011092DC011092DB011092B0
:10095000DA011092D7011092D4010F900F900F90EE
:10096000DF91CF911F91089580E090E00E947F1069
:10097000813019F48093CB0102C01092CB01809199
:10098000CB018F3F29F460E080E090E00E94871067
:10099000089581E090E00E947F10813019F48093E7
:1009A000C20102C01092C2018091C2018F3F29F49E
:1009B00060E081E090E00E94871008950E94850029
:1009C00078940E94CF000E94B4040E94C9040E943F
:1009D0005A04FDCF0895CF93C82F0E94790788232A
:1009E000E1F38C2F0E9489070E947F078111FCCFC1
:1009F000CF9108950F931F93CF93DF9300D0CDB77E
:100A0000DEB78091DE018F7051F00EC0F801E0502A
:100A1000FF4F80810E94EB040F5F1F4F02C000E078
:100A200010E00331110590F385E50E94EB048091FD
:100A3000DE010E94EB041A8219824EC089819A81DC
:100A40000E944A06192F0E94EB04812F0E94EB049A
:100A500089819A810E945706192F0E94EB04812FE9
:100A60000E94EB0489819A810E944A068C01898147
:100A70009A810E945706081B190B802F0E94EB04D5
:100A8000812F0E94EB0489819A810E946306192FAD
:100A90000E94EB04812F0E94EB0489819A810E94BD
:100AA0007006882324F481E00E94EB0403C080E0F8
:100AB0000E94EB0489819A81FC01EE0FFF1F8E0FCB
:100AC0009F1FFC01E55EFE4F80810E94EB0489813F
:100AD0009A8101969A83898389819A810A9708F479
:100AE000ADCF8091E1010E94EB048091DE0191E0A5
:100AF000980F9093DE010E94EB048AEA0E94EB04B7
:100B00000F900F90DF91CF911F910F91089582B1B7
:100B1000877F82B982B18B7F82B982B18F7782B9A8
:100B200085B18D7F85B982B18F7D82B982B18F7E8B
:100B300082B982B18F7B82B982B18E7F82B982B154
:100B40008D7F82B985B18E7F85B9089581E08093CC
:100B5000E3010895CF93DF9383E491E00E94380E80
:100B600084E392E00E94C90EC0E0D0E00BC0BE0159
:100B700083E491E00E94CC0FBE0183E491E00E94E7
:100B8000EB0F2196CA30D10590F3C0E0D0E00FC042
:100B9000AE01440F551F440F551F4C0F5D1F4E5F94
:100BA0005D4F6C2F83E191E00E9404082196CA30CA
:100BB000D10570F380E0DF91CF9108958F5F80932E
:100BC000E1010E94FA04089587BD089588E00E941B
:100BD000E405E3E6F0E08081877F80830E9487055B
:100BE0000E94AA050E94EA0408958091E4018130E0
:100BF00051F466EA75E083E491E00E94D30E81111E
:100C000002C01092E4018091E301813019F5109245
:100C1000E3010E94D10C81110AC083E191E00E949E
:100C20002308882339F081E00E94DE0503C080E0BC
:100C30000E94DE05E0911301F09114018081882368
:100C400024F481E08093E40103C081E08093E20119
:100C50000E94FA04089581E08093E40184E190E029
:100C60000E94F90708958091DF019091E001449777
:100C700039F41092E0011092DF010E942B060895D2
:100C80008091DF019091E00101969093E0018093C3
:100C9000DF010895FC01EE0FFF1FEE0FFF1F8E0F07
:100CA0009F1FFC01EE5FFD4F818192810895FC0141
:100CB000EE0FFF1FE80FF91FEE0FFF1FE85BFD4F60
:100CC000848195810895FC01EE0FFF1FEE0FFF1F39
:100CD0008E0F9F1FFC01EE5FFD4F8381948108956D
:100CE000E0911701F09118019C01220F331F820F30
:100CF000931F880F991FE80FF91F808108951F9295
:100D00000F920FB60F9211242F933F934F935F933F
:100D10006F937F938F939F93AF93BF93EF93FF93C3
:100D20000E942B10FF91EF91BF91AF919F918F91F6
:100D30007F916F915F914F913F912F910F900FBED7
:100D40000F901F90189584B18F7B84B985B18F7BEC
:100D500085B984B1806284B985B18F7D85B984B14C
:100D6000806884B985B18F7785B90E94000708959E
:100D70000E945B0708958AB18E7F8AB98BB18E7FFE
:100D80008BB98AB182608AB98BB18D7F8BB90E9491
:100D90006807089583E0809365008FEF8093640077
:100DA0009FE09093630091B111B892B182B994B170
:100DB00014B895B185B997B117B898B188B99AB1F7
:100DC0001AB89BB18BB98DB180788DB98EB18F6710
:100DD0008EB940E060E881E690E00E94F90613BE1B
:100DE00015BE78940E94A3060E94B8060E94BB0616
:100DF00008952FB7F894FC01608340832FBF0895B6
:100E0000E4E6F0E080818B7F808380ED8CBDE5EEB1
:100E1000F1E010821682158208951F920F920FB68C
:100E20000F9211242F933F934F935F936F937F9370
:100E30008F939F93AF93BF93EF93FF939EB5809152
:100E4000E901823029F0E091E601F091E701908319
:100E5000E5EEF1E0A181B2819D012F5F3F4F32832A
:100E60002183813019F011969C9101C090E0E5EE4C
:100E7000F1E0838181508383882311F09EBD0AC0F5
:100E8000E5EEF1E083E080830580F681E02D309788
:100E900009F00995FF91EF91BF91AF919F918F91CB
:100EA0007F916F915F914F913F912F910F900FBE66
:100EB0000F901F901895E4E6F0E080818F7D80838D
:100EC00082E084BD95E095BD80936E0080E008953A
:100ED000E4E6F0E080818D7F80831092C5008CE095
:100EE0008093C4001092C00088E08093C10080E02D
:100EF00008958091C00085FB882780F9089580912E
:100F0000C000829586958695837091E089278170CF
:100F100008959091C00095FFFCCF8093C60008957E
:100F2000CF92DF92FF920F931F93CF93DF93EC0149
:100F3000AE81BF81EB01CC0FDD1FC60FD71FCA0FDB
:100F4000DB1FFA80FC0144815581E6E0E69F9001B9
:100F5000E79F300D11248A01020F131FF80122812F
:100F60003381F90121813281F80104811581201B2F
:100F7000310BE8812E1B3109EC01EA81FB810081F4
:100F80001181FA0140E050E04017510739F146174E
:100F90005707F9F012968C911297F8121AC08081B7
:100FA00085588230E8F0C480D58082819381EC013D
:100FB00089819A81C816D90660F48C199D09CC9153
:100FC000D0E0C817D90728F48C1B9D0B28173907C8
:100FD00038F04F5F5F4F13963696D6CF80E001C052
:100FE00081E0DF91CF911F910F91FF90DF90CF9023
:100FF00008952091EC013091ED01820F931F9093A1
:10100000ED018093EC0108950097D9F04115510549
:10101000C1F026E0629FB0011124DC011496ED912D
:10102000FC911597E60FF71F21E0208314968D9110
:101030009C911597FC01E60FF71F5383428380E0D4
:1010400008958BE008952F923F924F925F926F9296
:101050007F928F929F92AF92BF92CF92DF92EF9248
:10106000FF920F931F93CF93DF93009709F47EC3F2
:10107000EC01A12CB12C812C912C212CD12C5524AC
:10108000539433E0C32E45E8642E56E8752E62E093
:10109000362E78E0472EEA81FB8180819181881687
:1010A000990608F0A6C17501EE0CFF1CEC81FD81CC
:1010B000EE0DFF1DA281B3819C919E7109F05082BB
:1010C0000C811D810E0D1F1DD8018C91843009F4F7
:1010D0009EC038F48230D1F008F045C0813059F01C
:1010E00081C1853809F4BFC0863809F4F5C087305E
:1010F00009F078C136C1911167C1F80130828C8145
:101100009D81FC01EE0DFF1D41825EC1D80111964B
:101110002C911197222329F11296ED91FC911397AE
:10112000253018F0818192810EC0D80114968D91DE
:101130009C911597418152818417950769F0481752
:10114000590730F4019715969C938E93149704C019
:101150000196F801958384832150D80111962C9330
:1011600033C1F8012DC1D80114962D913C911597EA
:101170001296ED91FC911397418152812417350706
:1011800009F430C18E819F8142175307F8F4EA8138
:10119000FB81241B350BDC01AA0DBB1D8C9190E05B
:1011A000058002C0959587950A94E2F7992728173C
:1011B000390708F417C18481882309F413C187E033
:1011C000F8018083EA81FB8124811AC0FC01EA0DC9
:1011D000FB1D421B530B808190E04817590708F410
:1011E00001C18281882331F0B401CE010E949007B1
:1011F0008111F8C0E4E0D801EC93EA81FB812281FF
:101200008C819D81FC01EE0DFF1D2183DDC0D80185
:1012100014962D913C9115971296ED91FC91139790
:10122000818192818217930708F4BBC0EE81FF8110
:10123000EA0DFB1D821B930B208130E02817390734
:1012400008F0C5C08281882331F0B401CE010E942C
:1012500090078111C7C0F8018181882309F46AC011
:1012600081508183B1C0E881F981AA81BB81189640
:101270008C918383EC81FD81EE0DFF1D44815581AE
:10128000A281B38111968D919C9112978417950735
:10129000C0F0AE81BF81AA0DBB1D6C91262F30E03E
:1012A00011967C917F5F02C0359527957A95E2F77C
:1012B000841B950B621B262F30E02817390708F492
:1012C0008FC07082EA81FB8122818C819D81FC012B
:1012D000EE0DFF1D218342C0D80114966D917C91C3
:1012E00015971296ED91FC91139721813281261763
:1012F000370758F411968C911197811102C0CC9246
:101300006FC08150F80181836BC0EE81FF81EA0DCF
:10131000FB1D8081482F50E091819F5F02C0559551
:1013200047959A95E2F7261B370B841B90E08217AE
:10133000930760F4D8016C92EA81FB8123818C8150
:101340009D81FC01EE0DFF1D21834AC0F8018181C2
:10135000811102C0C08244C0815081832224239421
:1013600033C0F801248135810280F381E02D818131
:1013700092818217930758F5281B390BEE81FF8164
:10138000EA0DFB1D808190E0EA81FB81058002C0AF
:10139000959587950A94E2F799272817390718F445
:1013A000D801CC9216C0F801818181110BC0508206
:1013B0008C819D81FC01EE0DFF1D0280F381E02DEB
:1013C000C08210C081508183DD24D3940BC0F8010A
:1013D000C0828C819D81FC01EE0DFF1D118202C037
:1013E00022242394FFEF8F1A9F0A83E0A80EB11CDA
:1013F00052CEE881F981808187FF23C040E050E030
:1014000020E030E0EA81FB81808191812817390753
:1014100098F4EC81FD81E40FF51FA281B3818C91DA
:1014200080FD05C09081977F11F081608C932F5FC4
:101430003F4F4A5F5F4FE6CFE881F98180818F7728
:101440008083D11007C0E881F98121106FC08081AD
:101450008E7F6EC0EA81FB8181858823A1F3E881BC
:10146000F981808180688083EA81FB818185813078
:1014700051F740E050E020E030E096E0D92EEA81DC
:10148000FB816081718126173707E8F60C811D8189
:10149000FA01EE0FFF1FE00FF11F8081982F977F59
:1014A000A1F1853811F08330B1F5EE80FF80D701CE
:1014B000A40FB51F1296BC90BB2039F180E090E0DC
:1014C000C12C86179707F8F428173907D1F0D89E52
:1014D000D001D99EB00D1124A00FB11FAC91A43042
:1014E00011F0A63871F4DC01AA0FBB1FA80FB91FB9
:1014F000AE0DBF1D1296AC91BA1203C0CB01CC2425
:10150000C3940196DECFC11006C00280F381E02DA6
:1015100080818E7F05C00280F381E02D8081816013
:1015200080832F5F3F4F4D5F5F4FA9CF80818160E8
:1015300080838091EC019091ED01E881F981218116
:101540003281A90148535F4F4817590738F4821B6D
:10155000930BAA24A394A3E0BA2E44C08217930746
:1015600010F080E004C1821B930B0197893C910528
:10157000C0F3EFCF885C9109E881F9812181328144
:1015800028533F4F328321832381211196C0248128
:10159000222311F021502483E881F981258122231F
:1015A00011F0215025838A809B80D40116962C91BE
:1015B000169721111BC08A809B80F401278121117D
:1015C00048C0EA81FB812381222361F020E030E0E2
:1015D000A0E0B0E0EA81FB8140815181A417B5070A
:1015E00008F46EC0893C910528F6BBCF08811981AB
:1015F000F80124812111DFCFED90FC9060E070E0D4
:1016000040E050E04E155F05F1F0EC81FD81E60F02
:10161000F71F2081233011F0283081F42481358197
:10162000C280D380D6011196CD90DC9012972C15F4
:101630003D0520F42F5F3F4F358324834F5F5F4F7D
:101640006A5F7F4FDFCFF4012681D80114962C9377
:10165000B2CF08811981D80115962C912111B1CFF3
:10166000E080F18060E070E040E050E04E155F0502
:10167000F1F0EC81FD81E60FF71F2081233011F09E
:10168000283081F424813581C280D380D60111961F
:10169000CD90DC901297C216D30620F42150310968
:1016A000358324834F5F5F4F6A5F7F4FDFCFF40145
:1016B0002781D80115962C9384CF2150238381CF85
:1016C000A901440F551FEC81FD81E40FF51F6081D6
:1016D000653809F047C06181662319F06150618364
:1016E00041C0A0826C817D81FB01E40FF51F028067
:1016F000F381E02DB082EE81FF81E20FF31FD280F3
:10170000DD2081F140E050E000E010E0EA81FB8163
:10171000608171810617170728F5EE81FF81E40FBC
:10172000F51F6281D61219C0BA01660F771FEC81CE
:10173000FD814F01860E971EF401E280F380F701D0
:10174000F080F0FE0AC0F401A082EC81FD81E60F7A
:10175000F71F0280F381E02DB0820F5F1F4F4D5FB6
:101760005F4FD4CF11962D5F3F4F34CF8BE0DF9189
:10177000CF911F910F91FF90EF90DF90CF90BF908E
:10178000AF909F908F907F906F905F904F903F9021
:101790002F9008958091F5019091F601A091840217
:1017A000B0918502ED91FC9111974081518125E026
:1017B000289FB001299F700D112420E030E084178C
:1017C0009507A8F41496ED91FC911597E20FF31F7D
:1017D000E60FF71FE0812B5F3F4FE0FD02C001964F
:1017E000EECF9093F6018093F50180E0089510927A
:1017F000F6011092F50181E008954AE0489F9001BA
:10180000499F300D1124E0918402F09185020280FD
:10181000F381E02DE20FF31F42814093F800E09145
:101820008402F09185020280F381E02DE20FF31F24
:1018300043814093F900E0918402F0918502028097
:10184000F381E02DE20FF31F44814093FA00E09111
:101850008402F09185020280F381E02DE20FF31FF4
:101860004281538164817581472F552766277727E9
:101870004093FB00E0918402F09185020280F381A5
:10188000E02DE20FF31F40814093F200E0918402CB
:10189000F09185020280F381E02DE20FF31F418178
:1018A0004093F30065E0689FA001699F500D1124EB
:1018B000E0918402F09185020480F581E02DE40F2F
:1018C000F51F83818093E500E0918402F091850209
:1018D0000480F581E02DE40FF51F83819481882732
:1018E0009F739093E600A0918402B09185021496B4
:1018F000ED91FC911597E40FF51F808181FD6083C8
:1019000014968D919C911597FC01E40FF51F808131
:101910008C7171F41296ED91FC911397E20FF31F05
:10192000E085E295EF70F0E0EB54FE4F808101C05E
:101930008FE38093E700E0918402F09185020280BA
:10194000F381E02DE20FF31F86818B3F10F48C5F53
:1019500001C08FEF8093E800E0918402F09185024E
:101960000280F381E02DE20FF31F8781807F918554
:10197000892B8093E400E0918402F09185028281BA
:101980009381FC01E20FF31F87818F708093E10048
:1019900082E18093E0008091E90081608093E9001A
:1019A00008954F925F926F927F928F929F92AF9223
:1019B000BF92CF92DF92EF92FF920F931F93CF933C
:1019C000DF938091F401882309F431C1A09184024E
:1019D000B0918502E0908602F0908702412C512C54
:1019E00060E070E000E010E080E06624639491E83D
:1019F000792EAA24AA94BB24B394CD90DC9011979D
:101A0000F601208131810217130708F00CC1E701AC
:101A1000299139917E011496ED91FC911597E60F6D
:101A2000F71F40814C7150E0569547955695479564
:101A30004115510521F041305105C1F0EBC012961E
:101A40004D915C911397440D551DEA0198859F7047
:101A50004985941710F4491B01C040E002C0369537
:101A600027954A95E2F732832183D5C012964D918E
:101A70005C911397440D551DEA01098402C0369507
:101A800027950A94E2F732832183438154812115FB
:101A9000D2E03D0720F02F5F314091E005C0E50125
:101AA000C21BD30B9E0190E0E601DA80D0E4DD1288
:101AB00005C036952795992319F009C0992339F067
:101AC0004F3F9FE3590731F470828EE007C08824AE
:101AD000839401C0812C2A30310598F41496ED913D
:101AE000FC911597E60FF71F208127FF608214965F
:101AF000ED91FC911597E60FF71F5F7354834383B5
:101B00008AC06A01CC24C0E3DC229D2C9294DFE0E1
:101B10009D226A01CC24DFE0DD229D2D6A01C0EF09
:101B2000CC22DD2454E0D694C7945A95E1F75C2D7D
:101B30004F70811032C0203D310560F0D3E09D161A
:101B400049F093942F5C3109F6CF9F3041F09F5FAD
:101B50002551310926313105C0F79F3069F493E0F2
:101B6000991202C09FE008C0939495E005C05F30D1
:101B700049F05F5F2250310923303105C0F75F30F3
:101B800009F05BC09F3009F454C09F5F55E055C019
:101B9000992061F09A942F5C3109203D3105C0F7FE
:101BA00005C0992341F09150255131092631310565
:101BB000C0F791110CC0911002C090E008C09A9437
:101BC0009AE005C0552341F051502250310923308D
:101BD0003105C0F751110DC09923B9F191505AE068
:101BE00023303105D0F605C02330310558F14FE0E0
:101BF0005FE0292D30E0322F22273295307F392BBC
:101C0000242BC0E15C9F60011124C22AD32AD48214
:101C1000C38201C0FFCF0F5F1F4F6B5F7F4FDAE0C2
:101C20004D0E511CEACE92E09093F40110C083E077
:101C30000EC053E09516C1F25FE02330310508F085
:101C40007ACFD7CF5FE04FE0D4CF50E0D2CFDF9153
:101C5000CF911F910F91FF90EF90DF90CF90BF90A9
:101C6000AF909F908F907F906F905F904F9008956E
:101C70008F929F92AF92BF92CF92DF92EF92FF929C
:101C8000CF93DF93009709F476C0DC01ED91FC91CE
:101C9000C080D180E12CF12CA0E0B0E040E050E029
:101CA000BA0120E030E0AC15BD05B1F0EC01EA81ED
:101CB000FB81EE0DFF1DA080B1802A293B29828087
:101CC0009380A480B580482959296A297B291196D7
:101CD000DAE0ED0EF11CE7CF411551056105710504
:101CE00009F44BC0E091F4014A015B018824AA2465
:101CF000BB246A017B01CC24DD24FF24872F992794
:101D0000AA27BB27E11117C02093F0003093F10000
:101D10004093F400892C9A2CAB2CBB248092F500C4
:101D20006701EE24FF24C092F6008093F70081E063
:101D30008093F4011EC0E091F0002E2B2093F00060
:101D40002091F100232B2093F1002091F400422BED
:101D50004093F4002091F50029292093F50020916B
:101D6000F6002E292093F6002091F700822B809315
:101D7000F70080E003C08BE001C082E0DF91CF91EB
:101D8000FF90EF90DF90CF90BF90AF909F908F909B
:101D90000895009731F0909387028093860280E047
:101DA00008958BE00895CF93DF9300D000D0CDB796
:101DB000DEB71092F8011092F9011092FA01109218
:101DC000FB016115710509F4DBC0009709F4D8C067
:101DD0002091F401222309F4D5C0243009F093C0E6
:101DE0001092F7018091E90080FF8BC02091E800FC
:101DF00030E0A6E0B0E00E9470106093F8017093AC
:101E0000F9018093FA019093FB012091E3002F7078
:101E1000DC01CB01820F911DA11DB11D8093F80142
:101E20009093F901A093FA01B093FB012091E40093
:101E3000277004C0880F991FAA1FBB1F2A95D2F7CD
:101E40000E96A11DB11D8093F8019093F901A09306
:101E5000FA01B093FB012091E100237004C0880FC8
:101E6000991FAA1FBB1F2A95D2F722E0B695A79506
:101E7000979587952A95D1F78093F8019093F9016A
:101E8000A093FA01B093FB0119821A821B821C8273
:101E900021E049815A816B817C81481759076A0783
:101EA0007B07B0F43091F701332329F089839A83BB
:101EB000AB83BC8320E049815A816B817C814F5F79
:101EC0005F4F6F4F7F4F49835A836B837C83E1CF92
:101ED0002223B9F08091E90080FF13C01092E00046
:101EE000000082E18093E000000081E08093E9003F
:101EF0008091F0019091F10101969093F10180930E
:101F0000F00181E042C09093850280938402709337
:101F1000EF016093EE01DC01ED91FC918281803450
:101F200011F488E003C0803879F58AE08093E200FC
:101F3000E0918402F09185020190F081E02D84818E
:101F4000803108F080E18093E30081E084BF8093DA
:101F500074001092F6011092F5010E94CA0B8111D3
:101F60000BC084E08093F4018091F5019091F6011B
:101F70000E94FD0B80E009C082E08093F40105C05F
:101F80008BE003C083E001C082E00F900F900F90C0
:101F90000F90DF91CF9108950097C9F0DC01ED918A
:101FA000FC911197208131812617370790F045E089
:101FB000469F9001479F300D11241496ED91FC919E
:101FC0001597E20FF31F81E0808380E008958BE096
:101FD000089582E008950097D1F1DC01ED91FC9124
:101FE0001197208131812617370798F122811496A5
:101FF000ED91FC911597203459F485E0869FD0012E
:10200000879FB00D1124AE0FBF1F84E392E00CC078
:10201000203881F485E0869FD001879FB00D112480
:10202000AE0FBF1F87E695E014969C938E9313978F
:1020300080E001C082E095E0969F9001979F300D6F
:102040001124E20FF31F90819260908308958BE03A
:10205000089582E008951092E0008091EE002091B2
:10206000EF00E091F501F091F601EE0FFF1F4091B6
:10207000860250918702E40FF51F90E0922B918326
:1020800080838091F2019091F30101969093F30186
:102090008093F201892B21F41092F1011092F0014A
:1020A0008091F5019091F60101969093F60180934D
:1020B000F5010E94CA0B81110AC084E08093F401EB
:1020C0008091F5019091F6010E94FD0B05C0E09111
:1020D000EE01F091EF01099581E08093F7010895F9
:1020E000A29FB001B39FC001A39F700D811D112459
:1020F000911DB29F700D811D1124911D0895F999B4
:10210000FECF92BD81BDF89A992780B50895262FFC
:10211000F999FECF1FBA92BD81BD20BD0FB6F894CC
:0E212000FA9AF99A0FBE01960895F894FFCF2F
:10212E005FB400864A03EB00000000000000AA55D1
:10213E00016EA0FC01390148021B010301000301DD
:10214E00000301000301000301000301000301006D
:10215E000301000301000301000A00010005001441
:10216E00051401AD01490102020000080000000043
:10217E0001000400000400000000010004000080C3
:10218E000000000001000400000000000200010039
:10219E0004000020000000000100040000100000F8
:1021AE0000000100040000400000000001000400D7
:1021BE000001000000000100040000020000000009
:1021CE00010004000000000001000100040A00806C
:0C21DE0030004C31003F1C0B05030100D9
:00000001FF
