S0220000346C745F6F7074696D697A65645F636F6E74726F6C5F313238612E73726563FF
S113000045C0000060C000005EC000005CC000008D
S11300105AC0000058C0000056C0000054C0000080
S113002052C0000050C000004EC000004CC0000090
S1130030FBC0000048C0000046C0000044C00000EF
S113004042C0000023C1000073C100003CC0000096
S11300503AC0000038C0000036C0000034C00000C0
S113006032C0000030C000002EC000002CC00000D0
S11300702AC0000028C0000026C0000024C00000E0
S113008022C0000020C000001EC0000011241FBEBA
S1130090CFEFD0E1DEBFCDBF11E0A0E0B1E0E2EDF3
S11300A0F7E000E00BBF02C007900D92A833B10740
S11300B0D9F721E0A8E3B1E001C01D92A334B2074F
S11300C0E1F756D284C39CCF82B3806482BBE2E65C
S11300D0F0E0808188608083EFE3F1E081E0808359
S11300E0608180E090E066C3089582B38F7B82BB19
S11300F0E2E6F0E08081877F8083EFE3F1E0108225
S1130100608180E090E056C3089582B3806282BB30
S1130110E2E6F0E0808180618083EFE3F1E081E05A
S11301208183618181E090E045C3089582B38F7D2E
S113013082BBE2E6F0E080818F7E8083EFE3F1E032
S11301401182618181E090E035C3089582B38068B3
S113015082BBE2E6F0E0808180628083EFE3F1E03D
S113016081E08283628182E090E024C3089582B3B7
S11301708F7782BBE2E6F0E080818F7D8083EFE3BE
S1130180F1E01282628182E090E014C3089582B3A8
S1130190806182BBE2E6F0E0808180648083EFE3EB
S11301A0F1E081E08383638183E090E003C30895F9
S11301B082B38F7E82BBE2E6F0E080818F7B808316
S11301C0EFE3F1E01382638183E090E0F3C20895EA
S11301D0DC0140E050E080E015C0FD01E40FF51FB4
S11301E09081892720E00AC0882334F490E0880FA6
S11301F0991F97E0892701C0880F2F5F2830A0F34B
S11302004F5F5F4F4617570740F308958EB58860D8
S11302108EBD88E29EE09BBD8ABD87B7806187BFA3
S11302208EB585608EBD08951F920F920FB60F9202
S113023011248F9381E080933E018F910F900FBE24
S11302400F901F901895AC0190913E01992399F05D
S113025010923E0120913C0130913D012F5F3F4FB0
S113026030933D0120933C012417350720F0109270
S11302703D0110923C01089587B3806187BB8DB125
S113028080648DB98DB180688DB908951F920F92E5
S11302900FB60F9211240BB60F922F933F934F93E7
S11302A05F936F937F938F939F93AF93BF93EF93DA
S11302B0FF939FB180913B01823048F4E82FF0E036
S11302C0E75CFE4F90838F5F80933B0107C08230D1
S11302D029F4909338018F5F80933B0180913B0117
S11302E0833081F462E070E089E391E071DF909102
S11302F03801891305C010923B0189E391E047D18D
S113030010923B018EB180688EB9FF91EF91BF913D
S1130310AF919F918F917F916F915F914F913F9199
S11303202F910F900BBE0F900FBE0F901F9018953A
S11303301F920F920FB60F9211240BB60F922F93A8
S11303403F934F935F936F937F938F939F93AF9359
S1130350BF93EF93FF938CB1DCD1FF91EF91BF91E9
S1130360AF919F918F917F916F915F914F913F9149
S11303702F910F900BBE0F900FBE0F901F901895EA
S11303807BDF44DF87E690E0B0D181B3806F81BB2F
S1130390E1E6F0E080818F6780830895EF92FF9219
S11303A01F93CF93DF93CDB7DEB728970FB6F8949A
S11303B0DEBF0FBECDBF88E0E0E0F1E0DE011196C4
S11303C001900D928A95E1F710E014C0812F90E01E
S11303D09C01215C3E4F7901880F991FE1E0F0E018
S11303E0EC0FFD1FE80FF91F80819181DBD1F7012C
S11303F080831F5F143050F328960FB6F894DEBF45
S11304000FBECDBFDF91CF911F91FF90EF90089564
S1130410EF92FF920F931F93CF93DF93CDB7DEB785
S1130420A0970FB6F894DEBF0FBECDBF88E1E8E019
S1130430F1E0DE01119601900D928A95E1F788E0D2
S1130440E0E2F1E0DE01599601900D928A95E1F720
S113045020E046C0822F90E0FC01EE0FFF1F41E038
S113046050E04C0F5D1FE40FF51F008CF18DE02D63
S113047030813323A1F17C01EE0CFF1CD701A80FBE
S1130480B91FAA0FBB1FA40FB51F0D911C91119783
S1130490F801308141E050E0BA0112960C901297B5
S11304A002C0660F771F0A94E2F7632760831396EE
S11304B00D90BC91A02D3C91F701E80FF91FEE0FB0
S11304C0FF1F81E090E08C0F9D1FE80FF91F05804E
S11304D002C0440F551F0A94E2F743274C932F5F41
S11304E0243008F4B7CFA0960FB6F894DEBF0FBE41
S11304F0CDBFDF91CF911F910F91FF90EF900895A1
S11305001F93CF93DF93CDB7DEB728970FB6F89438
S1130510DEBF0FBECDBF88E0E0E0F1E0DE01119662
S113052001900D928A95E1F710E016C0E12FF0E0FA
S1130530E15CFE4F80818F3F71F4E12FF0E0EE0F1C
S1130540FF1F81E090E08C0F9D1FE80FF91F60E012
S1130550808191812FD11F5F143040F328960FB60C
S1130560F894DEBF0FBECDBFDF91CF911F910895E8
S113057007DF84E690E067DE11DF84E690E063DE67
S113058047DF84E690E05FDEBBDF7894FFCFCF9354
S1130590DF93EC0168E271E0FCD0892B19F592B38A
S11305A080E4892782BBE2E6F0E0908188E0892735
S11305B0808390913F0181E0911180E090913F010F
S11305C0891709F48FC0CFE3D1E08883688180E084
S11305D090E0F0D08881813011F481E401C082E49C
S11305E090D080C06BE271E0CE01D3D0892B19F496
S11305F082E587D077C06EE271E0CE01CAD0892B44
S113060019F592B380E2892782BBE2E6F0E090819B
S113061080E1892780839091400181E0911180E0FD
S113062090914001891709F45DC0CFE3D1E089833B
S1130630698181E090E0BED08981813011F483E446
S113064001C084E45ED04EC061E371E0CE01A1D06C
S1130650892B09F582B3805882BBE2E6F0E09081F1
S113066080E2892780839091410181E0911180E0AB
S1130670909141018917B1F1CFE3D1E08A836A8176
S113068082E090E097D08A81813011F485E401C042
S113069086E437D027C064E371E0CE017AD0892B99
S11306A009F592B380E1892782BBE2E6F0E090810C
S11306B080E4892780839091420181E0911180E058
S11306C090914201891771F0CFE3D1E08B836B8164
S11306D083E090E06FD08B81813011F487E401C016
S11306E088E40FD0DF91CF9108959093900089B959
S11306F088E18AB98AB180688AB98EE080939500CE
S113070008955D9BFECF8CB908955F9BFECF8CB19D
S11307100895CF93C82F8C3449F4F7DFC82F813361
S113072011F4D2DC03C0803309F4DFDCCD3449F4A6
S1130730ECDFC82F813311F4E8DC03C0803309F403
S1130740F5DCCE3449F4E1DFC82F813311F4FEDC4B
S113075003C0803309F40BDDCF3449F4D6DFC82F4E
S1130760813311F414DD03C0803309F421DDCA356B
S113077071F4CBDF813329F4A7DCC7DCE7DC07DDC8
S113078006C0803321F4B1DCD1DCF1DC11DDCF9182
S11307900895FB01DC018D91019080190110D9F3BA
S11307A0990B0895E199FECF9FBB8EBBE09A9927E0
S11307B08DB30895262FE199FECF9FBB8EBB2DBB31
S11307C00FB6F894E29AE19A0FBE01960895F89450
S10507D0FFCF55
S11307D2000001000200030032000662000332003E
S11307E2056200043200076200053200046200065A
S11307F23F014001410142014C31004831004C3279
S10B0802004C33004C340000EB
S9030000FC
