:1000000045C0000060C000005EC000005CC0000091
:100010005AC0000058C0000056C0000054C0000084
:1000200052C0000050C000004EC000004CC0000094
:1000300035C2000048C0000046C0000044C00000B7
:1000400042C000003AC200008AC200003CC000006A
:100050003AC0000038C0000036C0000034C00000C4
:1000600032C0000030C000002EC000002CC00000D4
:100070002AC0000028C0000026C0000024C00000E4
:1000800022C0000020C000001EC0000011241FBEBE
:10009000CFEFD0E1DEBFCDBF11E0A0E0B1E0ECEAF0
:1000A000FDE000E00BBF02C007900D92A633B10740
:1000B000D9F721E0A6E3B1E001C01D92A434B20754
:1000C000E1F78AD371C69CCF1F93CF93DF93D82FCC
:1000D000192FC62F4ED180EA5CD1812F5AD18D2F96
:1000E00058D18C2F56D14DD1DF91CF911F910895CA
:1000F000CF93DF93C82FD92F3CD180EA4AD18D2FDF
:1001000048D18C2F46D135D181EA43D14CD1C82F6B
:1001100038D18C2FDF91CF910895CF93DF9385B3A2
:100120008B7F85BB82B38F7E82BB82B38F7D82BB88
:1001300082B38F7B82BB82B38F7782BB85B38E7F86
:1001400085BBC2E6D0E088818E7F888388EC90E012
:100150002ED288818D7F888388EC90E028D2888198
:100160008B7F888388EC90E022D28881877F888388
:1001700088EC90E01CD2DF91CF910895CF93DF936C
:1001800085B3846085BB82B3806182BB82B38F7D7F
:1001900082BB82B38F7B82BB82B38F7782BB85B3F6
:1001A0008E7F85BBC2E6D0E088818E7F888388EC15
:1001B00090E0FDD188818260888388EC90E0F7D15F
:1001C00088818B7F888388EC90E0F1D18881877F5C
:1001D000888388EC90E0EBD1DF91CF910895CF93A5
:1001E000DF9385B3846085BB82B3806182BB82B3B9
:1001F000806282BB82B38F7B82BB82B38F7782BBEC
:1002000085B38E7F85BBC2E6D0E08881816088831C
:1002100088EC90E0CCD188818260888388EC90E083
:10022000C6D188818B7F888388EC90E0C0D188819B
:10023000877F888388EC90E0BAD1DF91CF910895D1
:10024000CF93DF9385B3846085BB82B3806182BB2B
:1002500082B3806282BB82B3806482BB82B38F77B9
:1002600082BB85B38E7F85BBC2E6D0E0888181608A
:10027000888388EC90E09BD188818D7F888388EC8F
:1002800090E095D188818460888388EC90E08FD15C
:100290008881877F888388EC90E089D1DF91CF9136
:1002A0000895CF93DF9385B3846085BB82B380616B
:1002B00082BB82B3806282BB82B3806482BB82B322
:1002C000806882BB85B38E7F85BBC2E6D0E0888123
:1002D0008E7F888388EC90E06AD1888182608883F1
:1002E00088EC90E064D188818460888388EC90E019
:1002F0005ED18881877F888388EC90E058D1DF9138
:10030000CF910895CF93DF9385B3846085BB82B38B
:10031000806182BB82B3806282BB82B3806482BB15
:1003200082B3806882BB85B3816085BBC2E6D0E0C2
:1003300088818E7F888388EC90E039D188818D7F99
:10034000888388EC90E033D188818B7F888388EC28
:1003500090E02DD188818860888388EC90E027D157
:10036000DF91CF9108951092710088E4809370001E
:10037000089584EA80937400809174008823E4F7E0
:10038000089584E9809374008091740084FDFCCF0B
:1003900008958093730084E88093740080917400C2
:1003A0008823E4F7089584E88093740080917400B2
:1003B0008823E4F780917300089585B3826085BB3C
:1003C000E2E6F0E080818061808381E080934001FB
:1003D000089585B38D7F85BBE2E6F0E080818F7E56
:1003E000808310924001089585B3886085BBE2E662
:1003F000F0E080818062808381E0809341010895F4
:1004000085B3877F85BBE2E6F0E080818F7D8083C6
:1004100010924101089585B3806185BBE2E6F0E06A
:1004200080818064808381E080934201089585B358
:100430008F7E85BBE2E6F0E080818F7B8083109227
:1004400042010895DC0140E050E080E015C0FD016C
:10045000E40FF51F9081892720E00AC0882334F437
:1004600090E0880F991F97E0892701C0880F2F5FC0
:100470002830A0F34F5F5F4F4617570740F30895AA
:100480008EB588608EBD88E29EE09BBD8ABD87B731
:10049000806187BF8EB585608EBD08951F920F92D3
:1004A0000FB60F9211248F9381E080933C018F91BE
:1004B0000F900FBE0F901F9018951F920F920FB6BE
:1004C0000F9211240BB60F922F933F934F935F938C
:1004D0006F937F938F939F93AF93BF93EF93FF930C
:1004E0009FB180913B01823048F4E82FF0E0E75C57
:1004F000FE4F90838F5F80933B0107C0823029F4C9
:10050000909338018F5F80933B0180913B01833052
:1005100081F462E070E089E391E094DF909138012A
:10052000891305C010923B0189E391E0E5D1109257
:100530003B018EB180688EB9FF91EF91BF91AF9171
:100540009F918F917F916F915F914F913F912F91EB
:100550000F900BBE0F900FBE0F901F9018951F921B
:100560000F920FB60F9211240BB60F922F933F9359
:100570004F935F936F937F938F939F93AF93BF93AB
:10058000EF93FF938CB14CD3FF91EF91BF91AF915B
:100590009F918F917F916F915F914F913F912F919B
:1005A0000F900BBE0F900FBE0F901F901895AC01CF
:1005B00090913C01992399F010923C0120913601D1
:1005C000309137012F5F3F4F309337012093360131
:1005D0002417350720F01092370110923601089544
:1005E00087B3806187BB8DB180648DB98DB1806820
:1005F0008DB908957894B7DEF3DF42DF87E690E0A7
:10060000FED281B3806F81BBE1E6F0E080818F672D
:10061000808384B38F6D84BB0895EF92FF921F9304
:10062000CF93DF93CDB7DEB728970FB6F894DEBF30
:100630000FBECDBF80913E0190913F019A83898387
:1006400080910401909105019C838B83809102012C
:10065000909103019E838D8380910001909101010F
:1006600098878F8310E014C0812F90E09C01205C5C
:100670003E4F7901880F991FE1E0F0E0EC0FFD1F7C
:10068000E80FF91F8081918133DDF70180831F5FBF
:10069000143050F328960FB6F894DEBF0FBECDBFCE
:1006A000DF91CF911F91FF90EF900895EF92FF920D
:1006B0000F931F93CF93DF93CDB7DEB768970FB635
:1006C000F894DEBF0FBECDBF82E1E6E0F1E0DE01CF
:1006D000119601900D928A95E1F786E0E8E1F1E04C
:1006E000DE01539601900D928A95E1F720E046C015
:1006F000822F90E0FC01EE0FFF1F41E050E04C0F15
:100700005D1FE40FF51F0288F389E02D308133234C
:10071000A1F17C01EE0CFF1CD701A80FB91FAA0F95
:10072000BB1FA40FB51F0D911C911197F8013081CB
:1007300041E050E0BA0112960C90129702C0660F89
:10074000771F0A94E2F76327608313960D90BC919C
:10075000A02D3C91F701E80FF91FEE0FFF1F81E07C
:1007600090E08C0F9D1FE80FF91F058002C0440F19
:10077000551F0A94E2F743274C932F5F233008F468
:10078000B7CF68960FB6F894DEBF0FBECDBFDF912E
:10079000CF911F910F91FF90EF90089580914301A9
:1007A000823081F028F4882349F0813049F012C06A
:1007B000843061F048F0853059F00CC0AECC08951B
:1007C000DDCC08950CCD08953BCD08956ACD0895F4
:1007D00099CD0895A2CC08950DDF1FDF67DFDEDF1E
:1007E000FFCFEBDD01DE17DE809143018330E9F0BE
:1007F00028F4813041F0823079F032C08430F1F059
:10080000853029F12DC0BADC81E402D281E08093E9
:10081000430180933D010895E2DC83E4F9D182E055
:100820008093430180933D0108950ADD84E4F0D173
:1008300083E08093430180933D01089532DD85E498
:10084000E7D184E08093430180933D0108955ADD10
:1008500086E4DED185E08093430180933D010895D5
:1008600080913D018330E9F028F4813041F08230FD
:1008700079F032C08430F1F0853029F12DC07EDC72
:1008800081E4C6D181E08093430180933D010895C6
:10089000A6DC83E4BDD182E08093430180933D01D7
:1008A0000895CEDC84E4B4D183E080934301809347
:1008B0003D010895F6DC85E4ABD184E080934301EB
:1008C00080933D0108951EDD86E4A2D185E08093EA
:1008D000430180933D01089551DC81E499D181E089
:1008E0008093430180933D01089573DD89DD9FDD91
:1008F00014DC109243010895CF93DF93EC016EE175
:1009000071E049D2892B19F487E482D175C161E283
:1009100071E0CE0140D2892B29F595B382E0892779
:1009200085BBE2E6F0E0908180E1892780839091A9
:10093000400181E0911180E090914001891709F414
:100940005BC1C0E4D1E08883688180913E019091D1
:100950003F01BADB8881813011F480E501C081E577
:1009600057D14AC164E271E0CE0115D2892B29F535
:1009700095B388E0892785BBE2E6F0E0908180E2CC
:10098000892780839091410181E0911180E09091CD
:100990004101891709F430C1C0E4D1E0898369813C
:1009A00080910401909105018FDB8981813011F4E0
:1009B00082E501C083E52CD11FC167E271E0CE0161
:1009C000EAD1892B29F595B380E1892785BBE2E639
:1009D000F0E0908180E4892780839091420181E05A
:1009E000911180E090914201891709F405C1C0E49A
:1009F000D1E08A836A81809102019091030164DBD6
:100A00008A81813011F484E501C085E501D1F4C00B
:100A10006AE271E0CE01BFD1892B09F072C08091EA
:100A200043018330C9F028F4813041F0823069F00D
:100A300028C08430C1F08530E9F023C09FDB81E419
:100A4000E7D081E08093430154C0C9DB83E4E0D068
:100A500082E0809343014DC0F3DB84E4D9D083E08E
:100A60008093430146C01DDC85E4D2D084E08093AE
:100A700043013FC047DC86E4CBD085E0809343014F
:100A800038C080913D018330C9F028F4813041F0B5
:100A9000823069F028C08430C1F08530E9F023C08D
:100AA0006DDB81E4B5D081E08093430122C097DB08
:100AB00083E4AED082E0809343011BC0C1DB84E4B9
:100AC000A7D083E08093430114C0EBDB85E4A0D082
:100AD00084E0809343010DC015DC86E499D085E065
:100AE0008093430106C04ADB81E492D081E0809389
:100AF0004301609143018091000190910101E4DA8A
:100B00007BC06DE271E0CE0146D1892B51F482E4C5
:100B10007FD003DB60E08091000190910101D4DA85
:100B20006BC060E371E0CE0136D1892B09F034C08F
:100B3000949907C081E46CD021DB81E0809343016C
:100B400023C0959907C083E463D049DB82E080939A
:100B500043011AC0969907C084E45AD071DB83E040
:100B60008093430111C0979907C085E451D099DB68
:100B700084E08093430108C0A89906C086E448D069
:100B8000C1DB85E0809343016091430180910001C6
:100B90009091010199DA30C063E371E0CE01FBD09E
:100BA000892B51F5A89B07C085E432D07ADB84E01D
:100BB000809343011AC0979B07C084E429D040DB8F
:100BC00083E08093430111C0969B07C083E420D04B
:100BD00006DB82E08093430108C0959B06C081E458
:100BE00017D0CCDA81E0809343016091430180917A
:100BF00000019091010168DADF91CF9108959093FF
:100C0000900089B988E98AB98EE0809395000895AB
:100C10005D9BFECF8CB908955F9BFECF8CB108958C
:100C2000CF93DF938C3481F4F7DF813311F4C5DB8C
:100C300003C0803309F4CDDB6091400180913E0117
:100C400090913F0141DAA4C08D3481F4E5DF813316
:100C500011F4CADB03C0803309F4D2DB6091410197
:100C600080910401909105012FDA92C08E3481F4B5
:100C7000D3DF813311F4CFDB03C0803309F4D7DB3A
:100C80006091420180910201909103011DDA80C0C0
:100C9000863409F03EC0C0DF813371F56FDA81E040
:100CA0008093430180933D01B7DF853551F5B4DF73
:100CB000823339F494DA82E08093430180933D01DA
:100CC00020C0833339F4BCDA83E0809343018093FE
:100CD0003D0117C0843339F4E4DA84E080934301A2
:100CE00080933D010EC0853361F40CDB85E0809379
:100CF000430180933D0105C0803319F40EDA109250
:100D00004301609143018091000190910101DCD980
:100D10003FC08A3509F03CC07FDF8133E1F461DDFB
:100D2000C0E4D1E0688180913E0190913F01CCD92F
:100D300069818091040190910501C6D96A818091F1
:100D4000020190910301C0D96B81809100019091C3
:100D50000101BAD91DC08033D9F4C7DDC0E4D1E0A8
:100D6000688180913E0190913F01AED96981809167
:100D7000040190910501A8D96A81809102019091A6
:100D80000301A2D96B8180910001909101019CD94E
:100D9000DF91CF910895FB01DC018D9101908019C5
:0C0DA0000110D9F3990B0895F894FFCFCF
:100DAC0003000200010035000162000435000362FB
:100DBC000005350004620006400141014201483142
:100DCC00004C31004C32004C3300463000463100B0
:060DDC0055310044310016
:00000001FF
