:100000000C9466000C9483000C9483000C94830081
:100010000C9483000C9483000C9483000C94830054
:100020000C9483000C9483000C9483000C94830044
:100030000C9483000C9483000C9483000C94830034
:100040000C948A000C9483000C9483000C94390562
:100050000C9483000C9483000C9483000C94830014
:100060000C9483000C9483000C9483000C94830004
:100070000C9483000C9483000C9483000C948300F4
:100080000C9483000C9483000C9483000C948300E4
:100090000C9483000C9483000C9483000C94AB04A8
:1000A0000C9483000C9483000C9483000C948300C4
:1000B0000C9483000C9483000C9483000C948300B4
:1000C0000C9483000C9483000C94830011241FBEB5
:1000D000CFEFD8E0DEBFCDBF11E0A0E0B1E0E6E8B1
:1000E000FDE102C005900D92A23EB107D9F722E0D2
:1000F000A2EEB1E001C01D92AE3AB207E1F70E9454
:100100000A030C94C10E0C9400000E94F6040E9495
:10011000120408951F920F920FB60F9211242F937D
:100120003F934F935F936F937F938F939F93AF937F
:10013000BF93EF93FF930E945F0485B3816085BBFB
:10014000FF91EF91BF91AF919F918F917F916F91AF
:100150005F914F913F912F910F900FBE0F901F9085
:10016000189584B1806B84B980E58CBD85B18061C0
:1001700085B9089595B19F7E95B98EBD0DB407FEE2
:10018000FDCF85B1806185B908950F931F93CF93FB
:10019000DF938C01C0E0D0E00CC00E94BA002FEFCA
:1001A00080E792E0215080409040E1F700C00000DD
:1001B0002196F801EC0FFD1F80818111EECFDF91B8
:1001C000CF911F910F9108958091FF018093FE01BF
:1001D00080E090E00E949C0480788093FF01882357
:1001E000C1F08091FE01811114C08091FD018F5FEB
:1001F0008093FD01813029F482EB91E00E94C500DB
:100200000895823031F482EB91E00E94C500109293
:10021000FD0108958091FC018093FB0182E090E054
:100220000E949C0480788093FC018823C1F0809117
:10023000FB01811114C08091FA018F5F8093FA0154
:10024000813029F485EB91E00E94C5000895823049
:1002500031F485EB91E00E94C5001092FA010895F7
:100260008091F9018093F80181E090E00E949C0464
:1002700080788093F9018823C1F08091F801811181
:1002800014C08091F7018F5F8093F701813029F4CA
:1002900088EB91E00E94C5000895823031F488EB2C
:1002A00091E00E94C5001092F70108958091F60137
:1002B0008093F50183E090E00E949C048078809315
:1002C000F6018823C1F08091F501811114C080915D
:1002D000F4018F5F8093F401813029F48BEB91E07E
:1002E0000E94C5000895823031F48BEB91E00E94AA
:1002F000C5001092F40108958091F3018093F201FA
:1003000084E090E00E949C0480788093F30188232D
:1003100029F18091F201811121C08091F1018F5F5B
:100320008093F101813069F48EEB91E00E94C50069
:1003300081E08093F10161E080E090E00E94B30EE3
:100340000895823059F481EC91E00E94C50010922A
:10035000F10160E080E090E00E94B30E089580918A
:10036000F0018093EF0185E090E00E949C0480788A
:100370008093F001882359F09091EF01911107C00B
:10038000109203021092020291E09093EE018823F2
:1003900051F0809102029091030201969093030222
:1003A00080930202089581111FC08091EF0188237C
:1003B000D9F08091020290910302892B79F080910B
:1003C000020290910302883C910540F48091EE0175
:1003D000813021F484EC91E00E94C5001092030268
:1003E000109202021092EE0108958091ED01809327
:1003F000EC0186E090E00E949C0480788093ED01FF
:10040000882359F09091EC01911107C010920102DC
:100410001092000291E09093EB01882351F08091BB
:1004200000029091010201969093010280930002D4
:10043000089581111FC08091EC018823D9F080912B
:10044000000290910102892B79F080910002909135
:100450000102883C910540F48091EB01813021F448
:1004600087EC91E00E94C5001092010210920002F8
:100470001092EB0108958091EA018093E90187E0F1
:1004800090E00E949C0480788093EA01882329F1FF
:100490008091E901811121C08091E8018F5F8093F3
:1004A000E801813069F48AEC91E00E94C50081E0A6
:1004B0008093E80161E081E090E00E94B30E08952E
:1004C000823059F48DEC91E00E94C5001092E80151
:1004D00060E081E090E00E94B30E08958091E70112
:1004E0008093E60188E090E00E949C0480788093ED
:1004F000E701882369F08091E601811109C08091AC
:10050000E5018F5F8093E50180ED91E00E94C500D9
:1005100008958091E4018093E30189E090E00E94D6
:100520009C0480788093E401882369F08091E30142
:10053000811109C08091E2018F5F8093E20183ED18
:1005400091E00E94C50008950E9421048091080254
:10055000813009F046C0109208020E94E4000E9417
:100560000A010E9430010E9456010E947C010E94F3
:10057000AF010E94F5010E943B020E946E020E94A0
:1005800089028091020290910302883C9105C0F09B
:100590008091000290910102883C910588F086EDDF
:1005A00091E00E94C5001092030210920202109284
:1005B0000102109200021092EE011092EB010895D8
:1005C0008091020290910302883C910550F089EDE0
:1005D00091E00E94C5001092030210920202109254
:1005E000EB01089580E090E00E94AB0E813019F499
:1005F0008093F10108951092F101089581E090E057
:100600000E94AB0E813019F48093E8010895109296
:10061000E80108950E94850078940E94B1000E942C
:10062000F2020E94FE020E94A402FDCF0895CF9321
:10063000C82F0E94A5058823E1F38C2F0E94B505E1
:100640000E94AB058111FCCFCF9108950F931F93AA
:10065000CF93DF9300D0CDB7DEB7809104028F70C7
:1006600051F00EC0F801E050FF4F80810E94170347
:100670000F5F1F4F02C000E010E00331110590F33F
:1006800085E50E941703809104020E9417031A82D5
:1006900019824EC089819A810E947604192F0E9486
:1006A0001703812F0E94170389819A810E94830476
:1006B000192F0E941703812F0E94170389819A81A5
:1006C0000E9476048C0189819A810E948304081B10
:1006D000190B802F0E941703812F0E941703898115
:1006E0009A810E948F04192F0E941703812F0E9464
:1006F000170389819A810E949C04882324F481E055
:100700000E94170303C080E00E94170389819A8129
:10071000FC01EE0FFF1F8E0F9F1FFC01E55EFE4FD9
:1007200080810E94170389819A8101969A83898327
:1007300089819A810A9708F4ADCF809107020E94BF
:1007400017038091040291E0980F909304020E9495
:1007500017038AEA0E9417030F900F90DF91CF9141
:100760001F910F91089582B1877F82B982B18B7FEB
:1007700082B982B18F7782B985B18D7F85B982B117
:100780008F7D82B982B18F7E82B982B18F7B82B92F
:1007900082B18E7F82B982B18D7F82B985B18E7F21
:1007A00085B9089581E0809309020895CF93DF937E
:1007B00083E491E00E94640C8AE592E00E94F50CCB
:1007C000C0E0D0E00BC0BE0183E491E00E94F80DD0
:1007D000BE0183E491E00E94170E2196CA30D10534
:1007E00090F3C0E0D0E00FC0AE01440F551F440F9E
:1007F000551F4C0F5D1F485D5D4F6C2F83E191E0ED
:100800000E9430062196CA30D10570F380E0DF9156
:10081000CF9108958F5F809307020E942603089569
:1008200087BD089588E00E941004E3E6F0E080812F
:10083000877F80830E94B3030E94D6030E94160321
:10084000089580910A02813051F462ED73E083E4EF
:1008500091E00E94FF0C811102C010920A02809167
:100860000902813019F5109209020E94FD0A8111D6
:100870000AC083E191E00E944F06882339F081E0AD
:100880000E940A0403C080E00E940A04E091130160
:10089000F09114018081882324F481E080930A027E
:1008A00003C081E0809308020E942603089581E03E
:1008B00080930A0284E190E00E94250608958091C9
:1008C000050290910602449739F4109206021092A4
:1008D00005020E9457040895809105029091060236
:1008E000019690930602809305020895FC01EE0F95
:1008F000FF1FEE0FFF1F8E0F9F1FFC01E85DFD4FD6
:10090000818192810895FC01EE0FFF1FE80FF91F0E
:10091000EE0FFF1FE259FD4F848195810895FC0180
:10092000EE0FFF1FEE0FFF1F8E0F9F1FFC01E85DF4
:10093000FD4F838194810895E0911701F091180192
:100940009C01220F331F820F931F880F991FE80FFE
:10095000F91F808108951F920F920FB60F921124F4
:100960002F933F934F935F936F937F938F939F93B7
:10097000AF93BF93EF93FF930E94570EFF91EF91B8
:10098000BF91AF919F918F917F916F915F914F91A7
:100990003F912F910F900FBE0F901F90189584B12B
:1009A0008F7B84B985B18F7B85B984B1806284B92E
:1009B00085B18F7D85B984B1806884B985B18F7721
:1009C00085B90E942C0508950E94870508958AB173
:1009D0008E7F8AB98BB18E7F8BB98AB182608AB9DA
:1009E0008BB18D7F8BB90E949405089583E080932D
:1009F00065008FEF809364009FE09093630091B156
:100A000011B892B182B994B114B895B185B997B1C2
:100A100017B898B188B99AB11AB89BB18BB98DB192
:100A200080788DB98EB18F678EB940E060E881E63D
:100A300090E00E94250513BE15BE78940E94CF0455
:100A40000E94E4040E94E70408952FB7F894FC0183
:100A5000608340832FBF0895E4E6F0E080818B7FC0
:100A6000808380ED8CBDEBE0F2E01082168215826F
:100A700008951F920F920FB60F9211242F933F9358
:100A80004F935F936F937F938F939F93AF93BF9396
:100A9000EF93FF939EB580910F02823029F0E09191
:100AA0000C02F0910D029083EBE0F2E0A181B281A3
:100AB0009D012F5F3F4F32832183813019F01196C2
:100AC0009C9101C090E0EBE0F2E083818150838350
:100AD000882311F09EBD0AC0EBE0F2E083E0808342
:100AE0000580F681E02D309709F00995FF91EF918F
:100AF000BF91AF919F918F917F916F915F914F9136
:100B00003F912F910F900FBE0F901F901895E4E624
:100B1000F0E080818F7D808382E084BD95E095BD8B
:100B200080936E0080E00895E4E6F0E080818D7FA0
:100B300080831092C5008CE08093C4001092C000A6
:100B400088E08093C10080E008958091C00085FB1B
:100B5000882780F908958091C000829586958695B2
:100B6000837091E08927817008959091C00095FF6E
:100B7000FCCF8093C6000895CF92DF92FF920F932F
:100B80001F93CF93DF93EC01AE81BF81EB01CC0FBC
:100B9000DD1FC60FD71FCA0FDB1FFA80FC0144817F
:100BA0005581E6E0E69F9001E79F300D11248A0110
:100BB000020F131FF80122813381F9012181328153
:100BC000F80104811581201B310BE8812E1B3109AE
:100BD000EC01EA81FB8100811181FA0140E050E0E3
:100BE0004017510739F146175707F9F012968C91C3
:100BF0001297F8121AC0808185588230E8F0C480BC
:100C0000D58082819381EC0189819A81C816D906A9
:100C100060F48C199D09CC91D0E0C817D90728F44D
:100C20008C1B9D0B2817390738F04F5F5F4F1396C9
:100C30003696D6CF80E001C081E0DF91CF911F9141
:100C40000F91FF90DF90CF90089520911202309184
:100C50001302820F931F9093130280931202089540
:100C60000097D9F041155105C1F026E0629FB0010F
:100C70001124DC011496ED91FC911597E60FF71FF6
:100C800021E0208314968D919C911597FC01E60F2D
:100C9000F71F5383428380E008958BE008952F92DD
:100CA0003F924F925F926F927F928F929F92AF92FC
:100CB000BF92CF92DF92EF92FF920F931F93CF9349
:100CC000DF93009709F47EC3EC01A12CB12C812C99
:100CD000912C212CD12C5524539433E0C32E45E87C
:100CE000642E56E8752E62E0362E78E0472EEA81B3
:100CF000FB81808191818816990608F0A6C1750153
:100D0000EE0CFF1CEC81FD81EE0DFF1DA281B38175
:100D10009C919E7109F050820C811D810E0D1F1D4A
:100D2000D8018C91843009F49EC038F48230D1F01F
:100D300008F045C0813059F081C1853809F4BFC041
:100D4000863809F4F5C0873009F078C136C19111B1
:100D500067C1F80130828C819D81FC01EE0DFF1D81
:100D600041825EC1D80111962C911197222329F15D
:100D70001296ED91FC911397253018F081819281A4
:100D80000EC0D80114968D919C9115974181528186
:100D90008417950769F04817590730F4019715969D
:100DA0009C938E93149704C00196F80195838483D5
:100DB0002150D80111962C9333C1F8012DC1D801CF
:100DC00014962D913C9115971296ED91FC911397E5
:100DD000418152812417350709F430C18E819F81EA
:100DE00042175307F8F4EA81FB81241B350BDC0121
:100DF000AA0DBB1D8C9190E0058002C0959587954A
:100E00000A94E2F799272817390708F417C1848153
:100E1000882309F413C187E0F8018083EA81FB810C
:100E200024811AC0FC01EA0DFB1D421B530B80817B
:100E300090E04817590708F401C18281882331F0F6
:100E4000B401CE010E94BC058111F8C0E4E0D801D4
:100E5000EC93EA81FB8122818C819D81FC01EE0D66
:100E6000FF1D2183DDC0D80114962D913C9115976B
:100E70001296ED91FC9113978181928182179307CD
:100E800008F4BBC0EE81FF81EA0DFB1D821B930BB2
:100E9000208130E02817390708F0C5C082818823F7
:100EA00031F0B401CE010E94BC058111C7C0F80128
:100EB0008181882309F46AC081508183B1C0E881AF
:100EC000F981AA81BB8118968C918383EC81FD8185
:100ED000EE0DFF1D44815581A281B38111968D9144
:100EE0009C91129784179507C0F0AE81BF81AA0D1F
:100EF000BB1D6C91262F30E011967C917F5F02C064
:100F0000359527957A95E2F7841B950B621B262F62
:100F100030E02817390708F48FC07082EA81FB811E
:100F200022818C819D81FC01EE0DFF1D218342C039
:100F3000D80114966D917C9115971296ED91FC91C4
:100F40001397218132812617370758F411968C9117
:100F50001197811102C0CC926FC08150F80181833A
:100F60006BC0EE81FF81EA0DFB1D8081482F50E0B0
:100F700091819F5F02C0559547959A95E2F7261B90
:100F8000370B841B90E08217930760F4D8016C92B2
:100F9000EA81FB8123818C819D81FC01EE0DFF1D87
:100FA00021834AC0F8018181811102C0C08244C0FE
:100FB000815081832224239433C0F8012481358118
:100FC0000280F381E02D818192818217930758F589
:100FD000281B390BEE81FF81EA0DFB1D808190E01B
:100FE000EA81FB81058002C0959587950A94E2F716
:100FF00099272817390718F4D801CC9216C0F801A0
:10100000818181110BC050828C819D81FC01EE0D8C
:10101000FF1D0280F381E02DC08210C081508183CA
:10102000DD24D3940BC0F801C0828C819D81FC012A
:10103000EE0DFF1D118202C022242394FFEF8F1AB0
:101040009F0A83E0A80EB11C52CEE881F98180810D
:1010500087FF23C040E050E020E030E0EA81FB81E0
:10106000808191812817390798F4EC81FD81E40F84
:10107000F51FA281B3818C9180FD05C09081977F7F
:1010800011F081608C932F5F3F4F4A5F5F4FE6CF37
:10109000E881F98180818F778083D11007C0E88152
:1010A000F98121106FC080818E7F6EC0EA81FB8143
:1010B00081858823A1F3E881F9818081806880831C
:1010C000EA81FB818185813051F740E050E020E0EA
:1010D00030E096E0D92EEA81FB816081718126178C
:1010E0003707E8F60C811D81FA01EE0FFF1FE00FB4
:1010F000F11F8081982F977FA1F1853811F08330FF
:10110000B1F5EE80FF80D701A40FB51F1296BC90F9
:10111000BB2039F180E090E0C12C86179707F8F4E6
:1011200028173907D1F0D89ED001D99EB00D1124CF
:10113000A00FB11FAC91A43011F0A63871F4DC01FE
:10114000AA0FBB1FA80FB91FAE0DBF1D1296AC9101
:10115000BA1203C0CB01CC24C3940196DECFC110D8
:1011600006C00280F381E02D80818E7F05C0028061
:10117000F381E02D8081816080832F5F3F4F4D5F41
:101180005F4FA9CF8081816080838091120290910E
:101190001302E881F98121813281A90148535F4F0F
:1011A0004817590738F4821B930BAA24A394A3E091
:1011B000BA2E44C08217930710F080E004C1821B4E
:1011C000930B0197893C9105C0F3EFCF885C91099F
:1011D000E881F9812181328128533F4F3283218375
:1011E0002381211196C02481222311F021502483D0
:1011F000E881F9812581222311F0215025838A80FD
:101200009B80D40116962C91169721111BC08A80C1
:101210009B80F4012781211148C0EA81FB81238151
:10122000222361F020E030E0A0E0B0E0EA81FB8121
:1012300040815181A417B50708F46EC0893C91051F
:1012400028F6BBCF08811981F80124812111DFCF55
:10125000ED90FC9060E070E040E050E04E155F05DE
:10126000F1F0EC81FD81E60FF71F2081233011F0B2
:10127000283081F424813581C280D380D601119633
:10128000CD90DC9012972C153D0520F42F5F3F4F39
:10129000358324834F5F5F4F6A5F7F4FDFCFF40159
:1012A0002681D80114962C93B2CF08811981D801D8
:1012B00015962C912111B1CFE080F18060E070E0B3
:1012C00040E050E04E155F05F1F0EC81FD81E60F46
:1012D000F71F2081233011F0283081F424813581DB
:1012E000C280D380D6011196CD90DC901297C216A1
:1012F000D30620F421503109358324834F5F5F4F9B
:101300006A5F7F4FDFCFF4012781D80115962C93B8
:1013100084CF2150238381CFA901440F551FEC8135
:10132000FD81E40FF51F6081653809F047C06181D8
:10133000662319F06150618341C0A0826C817D8178
:10134000FB01E40FF51F0280F381E02DB082EE81F6
:10135000FF81E20FF31FD280DD2081F140E050E0F9
:1013600000E010E0EA81FB816081718106171707B8
:1013700028F5EE81FF81E40FF51F6281D61219C0B6
:10138000BA01660F771FEC81FD814F01860E971E13
:10139000F401E280F380F701F080F0FE0AC0F4016E
:1013A000A082EC81FD81E60FF71F0280F381E02D22
:1013B000B0820F5F1F4F4D5F5F4FD4CF11962D5FEF
:1013C0003F4F34CF8BE0DF91CF911F910F91FF9072
:1013D000EF90DF90CF90BF90AF909F908F907F90D5
:1013E0006F905F904F903F902F90089580911B02D7
:1013F00090911C02A091AA02B091AB02ED91FC91D8
:1014000011974081518125E0289FB001299F700DDF
:10141000112420E030E084179507A8F41496ED918C
:10142000FC911597E20FF31FE60FF71FE0812B5F8A
:101430003F4FE0FD02C00196EECF90931C028093D7
:101440001B0280E0089510921C0210921B0281E0A2
:1014500008954AE0489F9001499F300D1124E09182
:10146000AA02F091AB020280F381E02DE20FF31F9C
:1014700042814093F800E091AA02F091AB02028011
:10148000F381E02DE20FF31F43814093F900E091D7
:10149000AA02F091AB020280F381E02DE20FF31F6C
:1014A00044814093FA00E091AA02F091AB020280DD
:1014B000F381E02DE20FF31F428153816481758136
:1014C000472F5527662777274093FB00E091AA0214
:1014D000F091AB020280F381E02DE20FF31F408117
:1014E0004093F200E091AA02F091AB020280F381F6
:1014F000E02DE20FF31F41814093F30065E0689F08
:10150000A001699F500D1124E091AA02F091AB0255
:101510000480F581E02DE40FF51F83818093E500C1
:10152000E091AA02F091AB020480F581E02DE40F76
:10153000F51F8381948188279F739093E600A09183
:10154000AA02B091AB021496ED91FC911597E40FAD
:10155000F51F808181FD608314968D919C91159774
:10156000FC01E40FF51F80818C7171F41296ED91EE
:10157000FC911397E20FF31FE085E295EF70F0E026
:10158000E452FE4F808101C08FE38093E700E09139
:10159000AA02F091AB020280F381E02DE20FF31F6B
:1015A00086818B3F10F48C5F01C08FEF8093E80041
:1015B000E091AA02F091AB020280F381E02DE20FEC
:1015C000F31F8781807F9185892B8093E400E091D0
:1015D000AA02F091AB0282819381FC01E20FF31F1A
:1015E00087818F708093E10082E18093E000809199
:1015F000E90081608093E90008954F925F926F92B5
:101600007F928F929F92AF92BF92CF92DF92EF9292
:10161000FF920F931F93CF93DF9380911A02882339
:1016200009F431C1A091AA02B091AB02E090AC02E2
:10163000F090AD02412C512C60E070E000E010E031
:1016400080E06624639491E8792EAA24AA94BB24AE
:10165000B394CD90DC901197F6012081318102176F
:10166000130708F00CC1E701299139917E01149606
:10167000ED91FC911597E60FF71F40814C7150E0FA
:1016800056954795569547954115510521F041309E
:101690005105C1F0EBC012964D915C911397440D2A
:1016A000551DEA0198859F704985941710F4491BD0
:1016B00001C040E002C0369527954A95E2F7328393
:1016C0002183D5C012964D915C911397440D551D01
:1016D000EA01098402C0369527950A94E2F732831D
:1016E0002183438154812115D2E03D0720F02F5FF3
:1016F000314091E005C0E501C21BD30B9E0190E093
:10170000E601DA80D0E4DD1205C0369527959923ED
:1017100019F009C0992339F04F3F9FE3590731F47D
:1017200070828EE007C08824839401C0812C2A3007
:10173000310598F41496ED91FC911597E60FF71F7B
:10174000208127FF60821496ED91FC911597E60F9A
:10175000F71F5F73548343838AC06A01CC24C0E3BC
:10176000DC229D2C9294DFE09D226A01CC24DFE0F4
:10177000DD229D2D6A01C0EFCC22DD2454E0D694F9
:10178000C7945A95E1F75C2D4F70811032C0203D0F
:10179000310560F0D3E09D1649F093942F5C310938
:1017A000F6CF9F3041F09F5F255131092631310539
:1017B000C0F79F3069F493E0991202C09FE008C01F
:1017C000939495E005C05F3049F05F5F2250310986
:1017D00023303105C0F75F3009F05BC09F3009F45A
:1017E00054C09F5F55E055C0992061F09A942F5CDA
:1017F0003109203D3105C0F705C0992341F09150D2
:101800002551310926313105C0F791110CC09110D5
:1018100002C090E008C09A949AE005C0552341F0B8
:1018200051502250310923303105C0F751110DC0FC
:101830009923B9F191505AE023303105D0F605C013
:101840002330310558F14FE05FE0292D30E0322F91
:1018500022273295307F392B242BC0E15C9F600119
:101860001124C22AD32AD482C38201C0FFCF0F5FC2
:101870001F4F6B5F7F4FDAE04D0E511CEACE92E0B6
:1018800090931A0210C083E00EC053E09516C1F287
:101890005FE02330310508F07ACFD7CF5FE04FE02B
:1018A000D4CF50E0D2CFDF91CF911F910F91FF9015
:1018B000EF90DF90CF90BF90AF909F908F907F90F0
:1018C0006F905F904F9008958F929F92AF92BF92CA
:1018D000CF92DF92EF92FF92CF93DF93009709F4BC
:1018E00076C0DC01ED91FC91C080D180E12CF12C1F
:1018F000A0E0B0E040E050E0BA0120E030E0AC15FC
:10190000BD05B1F0EC01EA81FB81EE0DFF1DA08069
:10191000B1802A293B2982809380A480B580482900
:1019200059296A297B291196DAE0ED0EF11CE7CFDF
:10193000411551056105710509F44BC0E0911A028A
:101940004A015B018824AA24BB246A017B01CC24C0
:10195000DD24FF24872F9927AA27BB27E11117C071
:101960002093F0003093F1004093F400892C9A2CDE
:10197000AB2CBB248092F5006701EE24FF24C092BB
:10198000F6008093F70081E080931A021EC0E09178
:10199000F0002E2B2093F0002091F100232B2093B8
:1019A000F1002091F400422B4093F4002091F500C7
:1019B00029292093F5002091F6002E292093F60086
:1019C0002091F700822B8093F70080E003C08BE02A
:1019D00001C082E0DF91CF91FF90EF90DF90CF9038
:1019E000BF90AF909F908F900895009731F09093A3
:1019F000AD028093AC0280E008958BE00895CF9310
:101A0000DF9300D000D0CDB7DEB710921E02109247
:101A10001F0210922002109221026115710509F433
:101A2000DBC0009709F4D8C020911A02222309F4E0
:101A3000D5C0243009F093C010921D028091E900B6
:101A400080FF8BC02091E80030E0A6E0B0E00E946B
:101A50009C0E60931E0270931F028093200290934D
:101A600021022091E3002F70DC01CB01820F911D38
:101A7000A11DB11D80931E0290931F02A09320020E
:101A8000B09321022091E400277004C0880F991FB1
:101A9000AA1FBB1F2A95D2F70E96A11DB11D8093D8
:101AA0001E0290931F02A0932002B0932102209166
:101AB000E100237004C0880F991FAA1FBB1F2A953D
:101AC000D2F722E0B695A795979587952A95D1F7F5
:101AD00080931E0290931F02A0932002B0932102D4
:101AE00019821A821B821C8221E049815A816B81F2
:101AF0007C81481759076A077B07B0F430911D02B3
:101B0000332329F089839A83AB83BC8320E0498106
:101B10005A816B817C814F5F5F4F6F4F7F4F49834D
:101B20005A836B837C83E1CF2223B9F08091E90053
:101B300080FF13C01092E000000082E18093E0007B
:101B4000000081E08093E9008091160290911702D5
:101B50000196909317028093160281E042C0909301
:101B6000AB028093AA027093150260931402DC0109
:101B7000ED91FC918281803411F488E003C08038BB
:101B800079F58AE08093E200E091AA02F091AB023D
:101B90000190F081E02D8481803108F080E1809314
:101BA000E30081E084BF8093740010921C021092C5
:101BB0001B020E94F60981110BC084E080931A0277
:101BC00080911B0290911C020E94290A80E009C0AA
:101BD00082E080931A0205C08BE003C083E001C05D
:101BE00082E00F900F900F900F90DF91CF910895AA
:101BF0000097C9F0DC01ED91FC91119720813181B2
:101C00002617370790F045E0469F9001479F300D1B
:101C100011241496ED91FC911597E20FF31F81E0CA
:101C2000808380E008958BE0089582E00895009716
:101C3000D1F1DC01ED91FC911197208131812617C2
:101C4000370798F122811496ED91FC911597203475
:101C500059F485E0869FD001879FB00D1124AE0F07
:101C6000BF1F84E392E00CC0203881F485E0869F9A
:101C7000D001879FB00D1124AE0FBF1F87E695E0FE
:101C800014969C938E93139780E001C082E095E0B8
:101C9000969F9001979F300D1124E20FF31F9081C2
:101CA0009260908308958BE0089582E008951092E9
:101CB000E0008091EE002091EF00E0911B02F09196
:101CC0001C02EE0FFF1F4091AC025091AD02E40FD9
:101CD000F51F90E0922B9183808380911802909160
:101CE000190201969093190280931802892B21F40E
:101CF000109217021092160280911B0290911C0202
:101D0000019690931C0280931B020E94F609811198
:101D10000AC084E080931A0280911B0290911C02F9
:101D20000E94290A05C0E0911402F091150209955C
:101D300081E080931D020895A29FB001B39FC0016E
:101D4000A39F700D811D1124911DB29F700D811DE7
:101D50001124911D0895F999FECF92BD81BDF89A85
:101D6000992780B50895262FF999FECF1FBA92BD05
:101D700081BD20BD0FB6F894FA9AF99A0FBE01966C
:061D80000895F894FFCF66
:101D86005FB400864A03EB00000000000000AA557D
:101D9600016EA0220239016E021B0103010003013C
:101DA6000003010003010003010003010003010019
:101DB6000301000301000301000A000100050014ED
:101DC600051401AD014901280200000800000000C9
:101DD600010004000004000000000100040000806F
:101DE60000000000010004000000000002000100E5
:101DF60004000020000000000100040000100000A4
:101E06000000010004000040000000000100040082
:101E160000010000000001000400000200000000B4
:101E2600010004000000000001000100040A008017
:101E360030004C31004C32004C33004C34004630FC
:101E46000046310055310044310046320046330029
:101E56005532004432005031005231003F1C0B0510
:021E6600030176
:00000001FF
