:1000000045C0000060C000005EC000005CC0000091
:100010005AC0000058C0000056C0000054C0000084
:1000200052C0000050C000004EC000004CC0000094
:100030005EC1000048C0000046C0000044C000008F
:1000400042C000006DC10000BDC100003CC0000006
:100050003AC0000038C0000036C0000034C00000C4
:1000600032C0000030C000002EC000002CC00000D4
:100070002AC0000028C0000026C0000024C00000E4
:1000800022C0000020C000001EC0000011241FBEBE
:10009000CFEFD0E1DEBFCDBF11E0A0E0B1E0EEE5F3
:1000A000F8E000E00BBF02C007900D92A633B10745
:1000B000D9F721E0A6E3B1E001C01D92A134B20757
:1000C000E1F778D2CAC39CCF1F93CF93DF93D82F89
:1000D000192FC62F28D080EA36D0812F34D08D2F0B
:1000E00032D08C2F30D027D0DF91CF911F9108953F
:1000F000CF93DF93C82FD92F16D080EA24D08D2F2D
:1001000022D08C2F20D00FD081EA1DD026D0C82F2E
:1001100012D08C2FDF91CF9108951092710088E456
:1001200080937000089584EA809374008091740035
:100130008823E4F7089584E9809374008091740023
:1001400084FDFCCF08958093730084E8809374004D
:10015000809174008823E4F7089584E88093740004
:10016000809174008823E4F780917300089582B32E
:10017000806482BBE2E6F0E0808188608083EAE30D
:10018000F1E081E08083608180913E0190913F01A8
:100190009BCF089582B38F7B82BBE2E6F0E0808143
:1001A000877F8083EAE3F1E01082608180913E01E5
:1001B00090913F0189CF089582B3806282BBE2E6CD
:1001C000F0E0808180618083EAE3F1E081E0818377
:1001D0006181809104019091050176CF089582B3E9
:1001E0008F7D82BBE2E6F0E080818F7E8083EAE350
:1001F000F1E011826181809104019091050164CF49
:10020000089582B3806882BBE2E6F0E0808180627C
:100210008083EAE3F1E081E08283628180910201E0
:100220009091030151CF089582B38F7782BBE2E6AC
:10023000F0E080818F7D8083EAE3F1E012826281C9
:1002400080910201909103013FCF089582B38061B4
:1002500082BBE2E6F0E0808180648083EAE3F1E043
:1002600081E08383638180910001909101012CCF13
:10027000089582B38F7E82BBE2E6F0E080818F7BBF
:100280008083EAE3F1E01382638180910001909121
:1002900001011ACF0895DC0140E050E080E015C074
:1002A000FD01E40FF51F9081892720E00AC0882313
:1002B00034F490E0880F991F97E0892701C0880FD8
:1002C0002F5F2830A0F34F5F5F4F4617570740F36B
:1002D00008958EB588608EBD88E29EE09BBD8ABD84
:1002E00087B7806187BF8EB585608EBD08951F92E8
:1002F0000F920FB60F9211248F9381E080934001EB
:100300008F910F900FBE0F901F90189587B380614B
:1003100087BB8DB180648DB98DB180688DB908952A
:100320001F920F920FB60F9211240BB60F922F93BC
:100330003F934F935F936F937F938F939F93AF936D
:10034000BF93EF93FF939FB180913901823048F4BE
:10035000E82FF0E0E95CFE4F90838F5F80933901D6
:1003600007C0823029F4909336018F5F8093390162
:1003700080913901833081F462E070E087E391E09D
:100380008ADF90913601891305C01092390187E305
:1003900091E015D1109239018EB180688EB9FF912C
:1003A000EF91BF91AF919F918F917F916F915F91ED
:1003B0004F913F912F910F900BBE0F900FBE0F905A
:1003C0001F9018951F920F920FB60F9211240BB623
:1003D0000F922F933F934F935F936F937F938F93DE
:1003E0009F93AF93BF93EF93FF938CB1B3D1FF91E2
:1003F000EF91BF91AF919F918F917F916F915F919D
:100400004F913F912F910F900BBE0F900FBE0F9009
:100410001F90189582DE7ADF5CDF87E690E086D158
:1004200081B3806F81BBE1E6F0E080818F678083DC
:100430000895EF92FF921F93CF93DF93CDB7DEB76E
:1004400028970FB6F894DEBF0FBECDBF80913E0156
:1004500090913F019A8389838091040190910501D5
:100460009C838B8380910201909103019E838D83F5
:10047000809100019091010198878F8310E014C052
:10048000812F90E09C01265C3E4F7901880F991FD7
:10049000E1E0F0E0EC0FFD1FE80FF91F8081918192
:1004A00027DEF70180831F5F143050F328960FB6C4
:1004B000F894DEBF0FBECDBFDF91CF911F91FF90AB
:1004C000EF900895EF92FF920F931F93CF93DF93D6
:1004D000CDB7DEB7A0970FB6F894DEBF0FBECDBF85
:1004E00088E1E6E0F1E0DE01119601900D928A9537
:1004F000E1F788E0EEE1F1E0DE01599601900D921E
:100500008A95E1F720E046C0822F90E0FC01EE0FD3
:10051000FF1F41E050E04C0F5D1FE40FF51F008C02
:10052000F18DE02D30813323A1F17C01EE0CFF1C15
:10053000D701A80FB91FAA0FBB1FA40FB51F0D919C
:100540001C911197F801308141E050E0BA011296F8
:100550000C90129702C0660F771F0A94E2F7632788
:10056000608313960D90BC91A02D3C91F701E80F8C
:10057000F91FEE0FFF1F81E090E08C0F9D1FE80F29
:10058000F91F058002C0440F551F0A94E2F7432764
:100590004C932F5F243008F4B7CFA0960FB6F89491
:1005A000DEBF0FBECDBFDF91CF911F910F91FF90A6
:1005B000EF9008952FDF3DDF85DF7894FFCFCF9355
:1005C000DF93EC0166E271E03FD1892B29F592B30C
:1005D00080E4892782BBE2E6F0E0908188E0892709
:1005E000808390913A0181E0911180E090913A01ED
:1005F000891709F498C0CAE3D1E0888368818091A3
:100600003E0190913F0160DD8881813011F481E4E9
:1006100001C082E497D087C069E271E0CE0114D1B5
:10062000892B19F482E58ED07EC06CE271E0CE0198
:100630000BD1892B29F592B380E2892782BBE2E6B0
:10064000F0E0908180E18927808390913B0181E0F7
:10065000911180E090913B01891709F464C0CAE3CD
:10066000D1E08983698180910401909105012CDD9D
:100670008981813011F483E401C084E463D053C0E4
:100680006FE271E0CE01E0D0892B21F582B3805872
:1006900082BBE2E6F0E0908180E28927808390913E
:1006A0003C0181E0911180E090913C01891709F4AF
:1006B0003AC0CAE3D1E08A836A81809102019091B5
:1006C000030102DD8A81813011F485E401C086E4F2
:1006D00039D029C062E371E0CE01B6D0892B19F57B
:1006E00092B380E1892782BBE2E6F0E0908180E46A
:1006F0008927808390913D0181E0911180E0909164
:100700003D01891781F0CAE3D1E08B836B81809131
:10071000000190910101D8DC8B81813011F487E4D4
:1007200001C088E40FD0DF91CF910895909390009D
:1007300089B988E18AB98AB180688AB98EE08093E4
:10074000950008955D9BFECF8CB908955F9BFECF09
:100750008CB10895CF93DF938C3451F4F7DF81335C
:1007600011F405DD6EC0803309F06BC013DD69C084
:100770008D3451F4EBDF813311F41EDD62C0803320
:1007800009F05FC02CDD5DC08E3451F4DFDF8133B2
:1007900011F437DD56C0803309F053C045DD51C038
:1007A0008F3451F4D3DF813311F450DD4AC08033EC
:1007B00009F047C05EDD45C08A3509F042C0C6DF9A
:1007C0008133F9F4D4DCF8DC1CDD40DDCAE3D1E090
:1007D000688180913E0190913F0176DC6981809132
:1007E00004019091050170DC6A8180910201909171
:1007F00003016ADC6B81809100019091010164DC4E
:1008000020C08033F1F4C6DCEADC0EDD32DDCAE361
:10081000D1E0688180913E0190913F0155DC698172
:1008200080910401909105014FDC6A818091020161
:100830009091030149DC6B8180910001909101014D
:1008400043DCDF91CF910895FB01DC018D91019094
:0E08500080190110D9F3990B0895F894FFCF89
:10085E00030002000100320006620003320005624E
:10086E0000043200076200053200046200063A01FD
:10087E003B013C013D014C31004831004C32004CF3
:06088E0033004C340000B1
:00000001FF
